{
  "_format": "hh-sol-artifact-1",
  "contractName": "ClaimReward",
  "sourceName": "contracts/ClaimReward.sol",
  "abi": [
    {
      "inputs": [
        {
          "internalType": "string",
          "name": "name",
          "type": "string"
        },
        {
          "internalType": "string",
          "name": "symbol",
          "type": "string"
        },
        {
          "internalType": "uint8",
          "name": "decimals_",
          "type": "uint8"
        },
        {
          "internalType": "address",
          "name": "_token",
          "type": "address"
        }
      ],
      "stateMutability": "nonpayable",
      "type": "constructor"
    },
    {
      "inputs": [],
      "name": "ECDSAInvalidSignature",
      "type": "error"
    },
    {
      "inputs": [
        {
          "internalType": "uint256",
          "name": "length",
          "type": "uint256"
        }
      ],
      "name": "ECDSAInvalidSignatureLength",
      "type": "error"
    },
    {
      "inputs": [
        {
          "internalType": "bytes32",
          "name": "s",
          "type": "bytes32"
        }
      ],
      "name": "ECDSAInvalidSignatureS",
      "type": "error"
    },
    {
      "inputs": [],
      "name": "InvalidShortString",
      "type": "error"
    },
    {
      "inputs": [
        {
          "internalType": "string",
          "name": "str",
          "type": "string"
        }
      ],
      "name": "StringTooLong",
      "type": "error"
    },
    {
      "anonymous": false,
      "inputs": [
        {
          "indexed": true,
          "internalType": "address",
          "name": "owner",
          "type": "address"
        },
        {
          "indexed": true,
          "internalType": "address",
          "name": "spender",
          "type": "address"
        },
        {
          "indexed": false,
          "internalType": "uint256",
          "name": "value",
          "type": "uint256"
        }
      ],
      "name": "Approval",
      "type": "event"
    },
    {
      "anonymous": false,
      "inputs": [],
      "name": "EIP712DomainChanged",
      "type": "event"
    },
    {
      "anonymous": false,
      "inputs": [
        {
          "indexed": true,
          "internalType": "address",
          "name": "from",
          "type": "address"
        },
        {
          "indexed": true,
          "internalType": "address",
          "name": "to",
          "type": "address"
        },
        {
          "indexed": true,
          "internalType": "address",
          "name": "issuer",
          "type": "address"
        },
        {
          "indexed": false,
          "internalType": "uint256",
          "name": "value",
          "type": "uint256"
        }
      ],
      "name": "Fee",
      "type": "event"
    },
    {
      "anonymous": false,
      "inputs": [
        {
          "indexed": false,
          "internalType": "uint256",
          "name": "fee",
          "type": "uint256"
        }
      ],
      "name": "FeeUpdated",
      "type": "event"
    },
    {
      "anonymous": false,
      "inputs": [
        {
          "indexed": true,
          "internalType": "address",
          "name": "previousOwner",
          "type": "address"
        },
        {
          "indexed": true,
          "internalType": "address",
          "name": "newOwner",
          "type": "address"
        }
      ],
      "name": "OwnershipTransferred",
      "type": "event"
    },
    {
      "anonymous": false,
      "inputs": [
        {
          "indexed": true,
          "internalType": "address",
          "name": "from",
          "type": "address"
        },
        {
          "indexed": true,
          "internalType": "address",
          "name": "to",
          "type": "address"
        },
        {
          "indexed": false,
          "internalType": "uint256",
          "name": "value",
          "type": "uint256"
        }
      ],
      "name": "Transfer",
      "type": "event"
    },
    {
      "inputs": [],
      "name": "acceptOwnership",
      "outputs": [],
      "stateMutability": "nonpayable",
      "type": "function"
    },
    {
      "inputs": [
        {
          "internalType": "address",
          "name": "owner",
          "type": "address"
        },
        {
          "internalType": "address",
          "name": "spender",
          "type": "address"
        }
      ],
      "name": "allowance",
      "outputs": [
        {
          "internalType": "uint256",
          "name": "",
          "type": "uint256"
        }
      ],
      "stateMutability": "view",
      "type": "function"
    },
    {
      "inputs": [
        {
          "internalType": "address",
          "name": "spender",
          "type": "address"
        },
        {
          "internalType": "uint256",
          "name": "amount",
          "type": "uint256"
        }
      ],
      "name": "approve",
      "outputs": [
        {
          "internalType": "bool",
          "name": "",
          "type": "bool"
        }
      ],
      "stateMutability": "nonpayable",
      "type": "function"
    },
    {
      "inputs": [
        {
          "internalType": "address",
          "name": "owner",
          "type": "address"
        }
      ],
      "name": "balanceOf",
      "outputs": [
        {
          "internalType": "uint256",
          "name": "",
          "type": "uint256"
        }
      ],
      "stateMutability": "view",
      "type": "function"
    },
    {
      "inputs": [
        {
          "internalType": "uint256",
          "name": "amount",
          "type": "uint256"
        }
      ],
      "name": "burn",
      "outputs": [
        {
          "internalType": "bool",
          "name": "",
          "type": "bool"
        }
      ],
      "stateMutability": "nonpayable",
      "type": "function"
    },
    {
      "inputs": [
        {
          "components": [
            {
              "internalType": "address",
              "name": "user",
              "type": "address"
            },
            {
              "internalType": "uint256",
              "name": "amount",
              "type": "uint256"
            },
            {
              "internalType": "uint256",
              "name": "claimID",
              "type": "uint256"
            }
          ],
          "internalType": "struct ClaimReward.ClaimInfo",
          "name": "info",
          "type": "tuple"
        },
        {
          "internalType": "bytes",
          "name": "_signature",
          "type": "bytes"
        }
      ],
      "name": "claimReward",
      "outputs": [],
      "stateMutability": "nonpayable",
      "type": "function"
    },
    {
      "inputs": [],
      "name": "decimals",
      "outputs": [
        {
          "internalType": "uint8",
          "name": "",
          "type": "uint8"
        }
      ],
      "stateMutability": "view",
      "type": "function"
    },
    {
      "inputs": [],
      "name": "eip712Domain",
      "outputs": [
        {
          "internalType": "bytes1",
          "name": "fields",
          "type": "bytes1"
        },
        {
          "internalType": "string",
          "name": "name",
          "type": "string"
        },
        {
          "internalType": "string",
          "name": "version",
          "type": "string"
        },
        {
          "internalType": "uint256",
          "name": "chainId",
          "type": "uint256"
        },
        {
          "internalType": "address",
          "name": "verifyingContract",
          "type": "address"
        },
        {
          "internalType": "bytes32",
          "name": "salt",
          "type": "bytes32"
        },
        {
          "internalType": "uint256[]",
          "name": "extensions",
          "type": "uint256[]"
        }
      ],
      "stateMutability": "view",
      "type": "function"
    },
    {
      "inputs": [
        {
          "internalType": "uint256[]",
          "name": "_amounts",
          "type": "uint256[]"
        },
        {
          "internalType": "address[]",
          "name": "_tokens",
          "type": "address[]"
        }
      ],
      "name": "emergencyWithdraw",
      "outputs": [],
      "stateMutability": "payable",
      "type": "function"
    },
    {
      "inputs": [
        {
          "internalType": "uint256",
          "name": "value",
          "type": "uint256"
        }
      ],
      "name": "estimateFee",
      "outputs": [
        {
          "internalType": "uint256",
          "name": "",
          "type": "uint256"
        }
      ],
      "stateMutability": "view",
      "type": "function"
    },
    {
      "inputs": [],
      "name": "issuer",
      "outputs": [
        {
          "internalType": "address",
          "name": "",
          "type": "address"
        }
      ],
      "stateMutability": "view",
      "type": "function"
    },
    {
      "inputs": [],
      "name": "minFee",
      "outputs": [
        {
          "internalType": "uint256",
          "name": "",
          "type": "uint256"
        }
      ],
      "stateMutability": "view",
      "type": "function"
    },
    {
      "inputs": [],
      "name": "name",
      "outputs": [
        {
          "internalType": "string",
          "name": "",
          "type": "string"
        }
      ],
      "stateMutability": "view",
      "type": "function"
    },
    {
      "inputs": [],
      "name": "owner",
      "outputs": [
        {
          "internalType": "address",
          "name": "",
          "type": "address"
        }
      ],
      "stateMutability": "view",
      "type": "function"
    },
    {
      "inputs": [],
      "name": "pause",
      "outputs": [
        {
          "internalType": "bool",
          "name": "",
          "type": "bool"
        }
      ],
      "stateMutability": "view",
      "type": "function"
    },
    {
      "inputs": [
        {
          "internalType": "uint256",
          "name": "fee",
          "type": "uint256"
        }
      ],
      "name": "setFee",
      "outputs": [],
      "stateMutability": "nonpayable",
      "type": "function"
    },
    {
      "inputs": [
        {
          "internalType": "bool",
          "name": "_pause",
          "type": "bool"
        }
      ],
      "name": "setPause",
      "outputs": [],
      "stateMutability": "nonpayable",
      "type": "function"
    },
    {
      "inputs": [
        {
          "internalType": "address[]",
          "name": "_operator",
          "type": "address[]"
        },
        {
          "internalType": "bool",
          "name": "_whitelist",
          "type": "bool"
        }
      ],
      "name": "setWhitelistOperator",
      "outputs": [],
      "stateMutability": "nonpayable",
      "type": "function"
    },
    {
      "inputs": [
        {
          "internalType": "bytes4",
          "name": "interfaceId",
          "type": "bytes4"
        }
      ],
      "name": "supportsInterface",
      "outputs": [
        {
          "internalType": "bool",
          "name": "",
          "type": "bool"
        }
      ],
      "stateMutability": "view",
      "type": "function"
    },
    {
      "inputs": [],
      "name": "symbol",
      "outputs": [
        {
          "internalType": "string",
          "name": "",
          "type": "string"
        }
      ],
      "stateMutability": "view",
      "type": "function"
    },
    {
      "inputs": [],
      "name": "totalSupply",
      "outputs": [
        {
          "internalType": "uint256",
          "name": "",
          "type": "uint256"
        }
      ],
      "stateMutability": "view",
      "type": "function"
    },
    {
      "inputs": [
        {
          "internalType": "address",
          "name": "recipient",
          "type": "address"
        },
        {
          "internalType": "uint256",
          "name": "amount",
          "type": "uint256"
        }
      ],
      "name": "transfer",
      "outputs": [
        {
          "internalType": "bool",
          "name": "",
          "type": "bool"
        }
      ],
      "stateMutability": "nonpayable",
      "type": "function"
    },
    {
      "inputs": [
        {
          "internalType": "address",
          "name": "sender",
          "type": "address"
        },
        {
          "internalType": "address",
          "name": "recipient",
          "type": "address"
        },
        {
          "internalType": "uint256",
          "name": "amount",
          "type": "uint256"
        }
      ],
      "name": "transferFrom",
      "outputs": [
        {
          "internalType": "bool",
          "name": "",
          "type": "bool"
        }
      ],
      "stateMutability": "nonpayable",
      "type": "function"
    },
    {
      "inputs": [
        {
          "internalType": "address",
          "name": "newOwner",
          "type": "address"
        }
      ],
      "name": "transferOwnership",
      "outputs": [],
      "stateMutability": "nonpayable",
      "type": "function"
    },
    {
      "inputs": [
        {
          "internalType": "address",
          "name": "",
          "type": "address"
        },
        {
          "internalType": "uint256",
          "name": "",
          "type": "uint256"
        }
      ],
      "name": "userRewarded",
      "outputs": [
        {
          "internalType": "bool",
          "name": "",
          "type": "bool"
        }
      ],
      "stateMutability": "view",
      "type": "function"
    },
    {
      "inputs": [
        {
          "internalType": "address",
          "name": "",
          "type": "address"
        }
      ],
      "name": "whitelistOperator",
      "outputs": [
        {
          "internalType": "bool",
          "name": "",
          "type": "bool"
        }
      ],
      "stateMutability": "view",
      "type": "function"
    }
  ],
  "bytecode": "0x6101606040523480156200001257600080fd5b5060405162004744380380620047448339818101604052810190620000389190620005aa565b836040518060400160405280600181526020017f31000000000000000000000000000000000000000000000000000000000000008152508585858260059081620000839190620008a5565b508160069081620000959190620008a5565b5080600760006101000a81548160ff021916908360ff16021790555033600260006101000a81548173ffffffffffffffffffffffffffffffffffffffff021916908373ffffffffffffffffffffffffffffffffffffffff1602179055505050506200010b6009836200024860201b90919060201c565b610120818152505062000129600a826200024860201b90919060201c565b6101408181525050818051906020012060e08181525050808051906020012061010081815250504660a0818152505062000168620002a060201b60201c565b608081815250503073ffffffffffffffffffffffffffffffffffffffff1660c08173ffffffffffffffffffffffffffffffffffffffff1681525050505080600f60006101000a81548173ffffffffffffffffffffffffffffffffffffffff021916908373ffffffffffffffffffffffffffffffffffffffff1602179055506001600e60003373ffffffffffffffffffffffffffffffffffffffff1673ffffffffffffffffffffffffffffffffffffffff16815260200190815260200160002060006101000a81548160ff0219169083151502179055505050505062000b3e565b60006020835110156200026e576200026683620002fd60201b60201c565b90506200029a565b8262000280836200036a60201b60201c565b6000019081620002919190620008a5565b5060ff60001b90505b92915050565b60007f8b73c3c69bb8fe3d512ecc4cf759cc79239f7b179b0ffacaa9a75d522b39400f60e051610100514630604051602001620002e2959493929190620009c9565b60405160208183030381529060405280519060200120905090565b600080829050601f815111156200034d57826040517f305a27a900000000000000000000000000000000000000000000000000000000815260040162000344919062000a78565b60405180910390fd5b8051816200035b9062000ace565b60001c1760001b915050919050565b6000819050919050565b6000604051905090565b600080fd5b600080fd5b600080fd5b600080fd5b6000601f19601f8301169050919050565b7f4e487b7100000000000000000000000000000000000000000000000000000000600052604160045260246000fd5b620003dd8262000392565b810181811067ffffffffffffffff82111715620003ff57620003fe620003a3565b5b80604052505050565b60006200041462000374565b9050620004228282620003d2565b919050565b600067ffffffffffffffff821115620004455762000444620003a3565b5b620004508262000392565b9050602081019050919050565b60005b838110156200047d57808201518184015260208101905062000460565b60008484015250505050565b6000620004a06200049a8462000427565b62000408565b905082815260208101848484011115620004bf57620004be6200038d565b5b620004cc8482856200045d565b509392505050565b600082601f830112620004ec57620004eb62000388565b5b8151620004fe84826020860162000489565b91505092915050565b600060ff82169050919050565b6200051f8162000507565b81146200052b57600080fd5b50565b6000815190506200053f8162000514565b92915050565b600073ffffffffffffffffffffffffffffffffffffffff82169050919050565b6000620005728262000545565b9050919050565b620005848162000565565b81146200059057600080fd5b50565b600081519050620005a48162000579565b92915050565b60008060008060808587031215620005c757620005c66200037e565b5b600085015167ffffffffffffffff811115620005e857620005e762000383565b5b620005f687828801620004d4565b945050602085015167ffffffffffffffff8111156200061a576200061962000383565b5b6200062887828801620004d4565b93505060406200063b878288016200052e565b92505060606200064e8782880162000593565b91505092959194509250565b600081519050919050565b7f4e487b7100000000000000000000000000000000000000000000000000000000600052602260045260246000fd5b60006002820490506001821680620006ad57607f821691505b602082108103620006c357620006c262000665565b5b50919050565b60008190508160005260206000209050919050565b60006020601f8301049050919050565b600082821b905092915050565b6000600883026200072d7fffffffffffffffffffffffffffffffffffffffffffffffffffffffffffffffff82620006ee565b620007398683620006ee565b95508019841693508086168417925050509392505050565b6000819050919050565b6000819050919050565b600062000786620007806200077a8462000751565b6200075b565b62000751565b9050919050565b6000819050919050565b620007a28362000765565b620007ba620007b1826200078d565b848454620006fb565b825550505050565b600090565b620007d1620007c2565b620007de81848462000797565b505050565b5b818110156200080657620007fa600082620007c7565b600181019050620007e4565b5050565b601f82111562000855576200081f81620006c9565b6200082a84620006de565b810160208510156200083a578190505b620008526200084985620006de565b830182620007e3565b50505b505050565b600082821c905092915050565b60006200087a600019846008026200085a565b1980831691505092915050565b600062000895838362000867565b9150826002028217905092915050565b620008b0826200065a565b67ffffffffffffffff811115620008cc57620008cb620003a3565b5b620008d8825462000694565b620008e58282856200080a565b600060209050601f8311600181146200091d576000841562000908578287015190505b62000914858262000887565b86555062000984565b601f1984166200092d86620006c9565b60005b82811015620009575784890151825560018201915060208501945060208101905062000930565b8683101562000977578489015162000973601f89168262000867565b8355505b6001600288020188555050505b505050505050565b6000819050919050565b620009a1816200098c565b82525050565b620009b28162000751565b82525050565b620009c38162000565565b82525050565b600060a082019050620009e0600083018862000996565b620009ef602083018762000996565b620009fe604083018662000996565b62000a0d6060830185620009a7565b62000a1c6080830184620009b8565b9695505050505050565b600082825260208201905092915050565b600062000a44826200065a565b62000a50818562000a26565b935062000a628185602086016200045d565b62000a6d8162000392565b840191505092915050565b6000602082019050818103600083015262000a94818462000a37565b905092915050565b600081519050919050565b6000819050602082019050919050565b600062000ac582516200098c565b80915050919050565b600062000adb8262000a9c565b8262000ae78462000aa7565b905062000af48162000ab7565b9250602082101562000b375762000b327fffffffffffffffffffffffffffffffffffffffffffffffffffffffffffffffff83602003600802620006ee565b831692505b5050919050565b60805160a05160c05160e051610100516101205161014051613bab62000b99600039600061222e015260006121f3015260006127900152600061276f015260006124ee015260006125440152600061256d0152613bab6000f3fe6080604052600436106101315760003560e01c806301ffc9a71461013657806306fdde0314610173578063095ea7b31461019e578063127e8e4d146101db57806318160ddd146102185780631d1438481461024357806323b872dd1461026e57806324ec7590146102ab5780632a2b0bcd146102d6578063313ce5671461031357806342966c681461033e5780634c8263fd1461037b57806369fe0e2d146103a457806370a08231146103cd57806379ba50971461040a57806381081730146104215780638456cb591461045e57806384b0196e14610489578063886928d5146104ba5780638da5cb5b146104e357806395d89b411461050e578063a9059cbb14610539578063bedb86fb14610576578063d9d947031461059f578063dd62ed3e146105bb578063f2fde38b146105f8575b600080fd5b34801561014257600080fd5b5061015d60048036038101906101589190612892565b610621565b60405161016a91906128da565b60405180910390f35b34801561017f57600080fd5b5061018861068b565b6040516101959190612985565b60405180910390f35b3480156101aa57600080fd5b506101c560048036038101906101c09190612a3b565b61071d565b6040516101d291906128da565b60405180910390f35b3480156101e757600080fd5b5061020260048036038101906101fd9190612a7b565b61074d565b60405161020f9190612ab7565b60405180910390f35b34801561022457600080fd5b5061022d61078d565b60405161023a9190612ab7565b60405180910390f35b34801561024f57600080fd5b50610258610797565b6040516102659190612ae1565b60405180910390f35b34801561027a57600080fd5b5061029560048036038101906102909190612afc565b6107c1565b6040516102a291906128da565b60405180910390f35b3480156102b757600080fd5b506102c06109e3565b6040516102cd9190612ab7565b60405180910390f35b3480156102e257600080fd5b506102fd60048036038101906102f89190612b4f565b6109ed565b60405161030a91906128da565b60405180910390f35b34801561031f57600080fd5b50610328610a0d565b6040516103359190612b98565b60405180910390f35b34801561034a57600080fd5b5061036560048036038101906103609190612a7b565b610a24565b60405161037291906128da565b60405180910390f35b34801561038757600080fd5b506103a2600480360381019061039d9190612c3c565b610a52565b005b3480156103b057600080fd5b506103cb60048036038101906103c69190612a7b565b610d7e565b005b3480156103d957600080fd5b506103f460048036038101906103ef9190612b4f565b610e4f565b6040516104019190612ab7565b60405180910390f35b34801561041657600080fd5b5061041f610e97565b005b34801561042d57600080fd5b5061044860048036038101906104439190612a3b565b611072565b60405161045591906128da565b60405180910390f35b34801561046a57600080fd5b506104736110a1565b60405161048091906128da565b60405180910390f35b34801561049557600080fd5b5061049e6110b4565b6040516104b19796959493929190612dae565b60405180910390f35b3480156104c657600080fd5b506104e160048036038101906104dc9190612eb4565b61115e565b005b3480156104ef57600080fd5b506104f86112d3565b6040516105059190612ae1565b60405180910390f35b34801561051a57600080fd5b506105236112fd565b6040516105309190612985565b60405180910390f35b34801561054557600080fd5b50610560600480360381019061055b9190612a3b565b61138f565b60405161056d91906128da565b60405180910390f35b34801561058257600080fd5b5061059d60048036038101906105989190612f14565b6113be565b005b6105b960048036038101906105b49190612f97565b61146b565b005b3480156105c757600080fd5b506105e260048036038101906105dd9190613018565b6116cc565b6040516105ef9190612ab7565b60405180910390f35b34801561060457600080fd5b5061061f600480360381019061061a9190612b4f565b611753565b005b60007f08617865000000000000000000000000000000000000000000000000000000007bffffffffffffffffffffffffffffffffffffffffffffffffffffffff1916827bffffffffffffffffffffffffffffffffffffffffffffffffffffffff1916149050919050565b60606005805461069a90613087565b80601f01602080910402602001604051908101604052809291908181526020018280546106c690613087565b80156107135780601f106106e857610100808354040283529160200191610713565b820191906000526020600020905b8154815290600101906020018083116106f657829003601f168201915b5050505050905090565b60008061072a600061074d565b9050610737338585611896565b610742333083611a5f565b600191505092915050565b600061076e3373ffffffffffffffffffffffffffffffffffffffff16611b5d565b1561077c5760009050610788565b61078582611b70565b90505b919050565b6000600854905090565b6000600260009054906101000a900473ffffffffffffffffffffffffffffffffffffffff16905090565b6000806107cd8361074d565b90506107e28184611b9990919063ffffffff16565b600460008773ffffffffffffffffffffffffffffffffffffffff1673ffffffffffffffffffffffffffffffffffffffff16815260200190815260200160002060003373ffffffffffffffffffffffffffffffffffffffff1673ffffffffffffffffffffffffffffffffffffffff1681526020019081526020016000205410156108a0576040517f08c379a000000000000000000000000000000000000000000000000000000000815260040161089790613104565b60405180910390fd5b6109418161093385600460008a73ffffffffffffffffffffffffffffffffffffffff1673ffffffffffffffffffffffffffffffffffffffff16815260200190815260200160002060003373ffffffffffffffffffffffffffffffffffffffff1673ffffffffffffffffffffffffffffffffffffffff16815260200190815260200160002054611bf790919063ffffffff16565b611bf790919063ffffffff16565b600460008773ffffffffffffffffffffffffffffffffffffffff1673ffffffffffffffffffffffffffffffffffffffff16815260200190815260200160002060003373ffffffffffffffffffffffffffffffffffffffff1673ffffffffffffffffffffffffffffffffffffffff168152602001908152602001600020819055506109cc858585611c50565b6109d7858583611a5f565b60019150509392505050565b6000600154905090565b600e6020528060005260406000206000915054906101000a900460ff1681565b6000600760009054906101000a900460ff16905090565b600080610a31600061074d565b9050610a3d3384611f3f565b610a48333083611a5f565b6001915050919050565b600b60009054906101000a900460ff1615610aa2576040517f08c379a0000000000000000000000000000000000000000000000000000000008152600401610a9990613170565b60405180910390fd5b600d6000846000016020810190610ab99190612b4f565b73ffffffffffffffffffffffffffffffffffffffff1673ffffffffffffffffffffffffffffffffffffffff16815260200190815260200160002060008460400135815260200190815260200160002060009054906101000a900460ff1615610b56576040517f08c379a0000000000000000000000000000000000000000000000000000000008152600401610b4d906131dc565b60405180910390fd5b6000610b6184612147565b90506000610bb38285858080601f016020809104026020016040519081016040528093929190818152602001838380828437600081840152601f19601f820116905080830192505050505050506121be565b9050600e60008273ffffffffffffffffffffffffffffffffffffffff1673ffffffffffffffffffffffffffffffffffffffff16815260200190815260200160002060009054906101000a900460ff16610c41576040517f08c379a0000000000000000000000000000000000000000000000000000000008152600401610c3890613248565b60405180910390fd5b6001600d6000876000016020810190610c5a9190612b4f565b73ffffffffffffffffffffffffffffffffffffffff1673ffffffffffffffffffffffffffffffffffffffff16815260200190815260200160002060008760400135815260200190815260200160002060006101000a81548160ff021916908315150217905550600f60009054906101000a900473ffffffffffffffffffffffffffffffffffffffff1673ffffffffffffffffffffffffffffffffffffffff1663a9059cbb866000016020810190610d119190612b4f565b87602001356040518363ffffffff1660e01b8152600401610d33929190613268565b6020604051808303816000875af1158015610d52573d6000803e3d6000fd5b505050506040513d601f19601f82011682018060405250810190610d7691906132a6565b505050505050565b3373ffffffffffffffffffffffffffffffffffffffff16600260009054906101000a900473ffffffffffffffffffffffffffffffffffffffff1673ffffffffffffffffffffffffffffffffffffffff1614610e0e576040517f08c379a0000000000000000000000000000000000000000000000000000000008152600401610e059061331f565b60405180910390fd5b806001819055507f8c4d35e54a3f2ef1134138fd8ea3daee6a3c89e10d2665996babdf70261e2c7681604051610e449190612ab7565b60405180910390a150565b60008060008373ffffffffffffffffffffffffffffffffffffffff1673ffffffffffffffffffffffffffffffffffffffff168152602001908152602001600020549050919050565b600360009054906101000a900473ffffffffffffffffffffffffffffffffffffffff1673ffffffffffffffffffffffffffffffffffffffff163373ffffffffffffffffffffffffffffffffffffffff1614610f27576040517f08c379a0000000000000000000000000000000000000000000000000000000008152600401610f1e906133b1565b60405180910390fd5b6000600260009054906101000a900473ffffffffffffffffffffffffffffffffffffffff169050600360009054906101000a900473ffffffffffffffffffffffffffffffffffffffff16600260006101000a81548173ffffffffffffffffffffffffffffffffffffffff021916908373ffffffffffffffffffffffffffffffffffffffff1602179055506000600360006101000a81548173ffffffffffffffffffffffffffffffffffffffff021916908373ffffffffffffffffffffffffffffffffffffffff160217905550600260009054906101000a900473ffffffffffffffffffffffffffffffffffffffff1673ffffffffffffffffffffffffffffffffffffffff168173ffffffffffffffffffffffffffffffffffffffff167f8be0079c531659141344cd1fd0a4f28419497f9722a3daafe3b4186f6b6457e060405160405180910390a350565b600d6020528160005260406000206020528060005260406000206000915091509054906101000a900460ff1681565b600b60009054906101000a900460ff1681565b6000606080600080600060606110c86121ea565b6110d0612225565b46306000801b600067ffffffffffffffff8111156110f1576110f06133d1565b5b60405190808252806020026020018201604052801561111f5781602001602082028036833780820191505090505b507f0f00000000000000000000000000000000000000000000000000000000000000959493929190965096509650965096509650965090919293949596565b3373ffffffffffffffffffffffffffffffffffffffff16600260009054906101000a900473ffffffffffffffffffffffffffffffffffffffff1673ffffffffffffffffffffffffffffffffffffffff16146111ee576040517f08c379a00000000000000000000000000000000000000000000000000000000081526004016111e59061331f565b60405180910390fd5b60008383905011611234576040517f08c379a000000000000000000000000000000000000000000000000000000000815260040161122b9061344c565b60405180910390fd5b60005b838390508110156112cd5781600e600086868581811061125a5761125961346c565b5b905060200201602081019061126f9190612b4f565b73ffffffffffffffffffffffffffffffffffffffff1673ffffffffffffffffffffffffffffffffffffffff16815260200190815260200160002060006101000a81548160ff0219169083151502179055508080600101915050611237565b50505050565b6000600260009054906101000a900473ffffffffffffffffffffffffffffffffffffffff16905090565b60606006805461130c90613087565b80601f016020809104026020016040519081016040528092919081815260200182805461133890613087565b80156113855780601f1061135a57610100808354040283529160200191611385565b820191906000526020600020905b81548152906001019060200180831161136857829003601f168201915b5050505050905090565b60008061139b8361074d565b90506113a8338585611c50565b6113b3338583611a5f565b600191505092915050565b3373ffffffffffffffffffffffffffffffffffffffff16600260009054906101000a900473ffffffffffffffffffffffffffffffffffffffff1673ffffffffffffffffffffffffffffffffffffffff161461144e576040517f08c379a00000000000000000000000000000000000000000000000000000000081526004016114459061331f565b60405180910390fd5b80600b60006101000a81548160ff02191690831515021790555050565b3373ffffffffffffffffffffffffffffffffffffffff16600260009054906101000a900473ffffffffffffffffffffffffffffffffffffffff1673ffffffffffffffffffffffffffffffffffffffff16146114fb576040517f08c379a00000000000000000000000000000000000000000000000000000000081526004016114f29061331f565b60405180910390fd5b818190508484905014611543576040517f08c379a000000000000000000000000000000000000000000000000000000000815260040161153a906134e7565b60405180910390fd5b60005b828290508110156116c557600073ffffffffffffffffffffffffffffffffffffffff1683838381811061157c5761157b61346c565b5b90506020020160208101906115919190612b4f565b73ffffffffffffffffffffffffffffffffffffffff16036115f8573373ffffffffffffffffffffffffffffffffffffffff166108fc479081150290604051600060405180830381858888f193505050501580156115f2573d6000803e3d6000fd5b506116b8565b82828281811061160b5761160a61346c565b5b90506020020160208101906116209190612b4f565b73ffffffffffffffffffffffffffffffffffffffff1663a9059cbb3387878581811061164f5761164e61346c565b5b905060200201356040518363ffffffff1660e01b8152600401611673929190613268565b6020604051808303816000875af1158015611692573d6000803e3d6000fd5b505050506040513d601f19601f820116820180604052508101906116b691906132a6565b505b8080600101915050611546565b5050505050565b6000600460008473ffffffffffffffffffffffffffffffffffffffff1673ffffffffffffffffffffffffffffffffffffffff16815260200190815260200160002060008373ffffffffffffffffffffffffffffffffffffffff1673ffffffffffffffffffffffffffffffffffffffff16815260200190815260200160002054905092915050565b3373ffffffffffffffffffffffffffffffffffffffff16600260009054906101000a900473ffffffffffffffffffffffffffffffffffffffff1673ffffffffffffffffffffffffffffffffffffffff16146117e3576040517f08c379a00000000000000000000000000000000000000000000000000000000081526004016117da9061331f565b60405180910390fd5b600073ffffffffffffffffffffffffffffffffffffffff168173ffffffffffffffffffffffffffffffffffffffff1603611852576040517f08c379a000000000000000000000000000000000000000000000000000000000815260040161184990613579565b60405180910390fd5b80600360006101000a81548173ffffffffffffffffffffffffffffffffffffffff021916908373ffffffffffffffffffffffffffffffffffffffff16021790555050565b600073ffffffffffffffffffffffffffffffffffffffff168373ffffffffffffffffffffffffffffffffffffffff1603611905576040517f08c379a00000000000000000000000000000000000000000000000000000000081526004016118fc9061360b565b60405180910390fd5b600073ffffffffffffffffffffffffffffffffffffffff168273ffffffffffffffffffffffffffffffffffffffff1603611974576040517f08c379a000000000000000000000000000000000000000000000000000000000815260040161196b9061369d565b60405180910390fd5b80600460008573ffffffffffffffffffffffffffffffffffffffff1673ffffffffffffffffffffffffffffffffffffffff16815260200190815260200160002060008473ffffffffffffffffffffffffffffffffffffffff1673ffffffffffffffffffffffffffffffffffffffff168152602001908152602001600020819055508173ffffffffffffffffffffffffffffffffffffffff168373ffffffffffffffffffffffffffffffffffffffff167f8c5be1e5ebec7d5bd14f71427d1e84f3dd0314c0f7b2291e5b200ac8c7c3b92583604051611a529190612ab7565b60405180910390a3505050565b611a7e3373ffffffffffffffffffffffffffffffffffffffff16611b5d565b611b58576000811115611b5757611ab883600260009054906101000a900473ffffffffffffffffffffffffffffffffffffffff1683611c50565b600260009054906101000a900473ffffffffffffffffffffffffffffffffffffffff1673ffffffffffffffffffffffffffffffffffffffff168273ffffffffffffffffffffffffffffffffffffffff168473ffffffffffffffffffffffffffffffffffffffff167ffcf5b3276434181e3c48bd3fe569b8939808f11e845d4b963693b9d7dbd6dd9984604051611b4e9190612ab7565b60405180910390a45b5b505050565b600080823b905060008111915050919050565b6000611b7a6109e3565b821115611b8957819050611b94565b611b916109e3565b90505b919050565b6000808284611ba891906136ec565b905083811015611bed576040517f08c379a0000000000000000000000000000000000000000000000000000000008152600401611be49061376c565b60405180910390fd5b8091505092915050565b600082821115611c3c576040517f08c379a0000000000000000000000000000000000000000000000000000000008152600401611c33906137d8565b60405180910390fd5b8183611c4891906137f8565b905092915050565b600073ffffffffffffffffffffffffffffffffffffffff168373ffffffffffffffffffffffffffffffffffffffff1603611cbf576040517f08c379a0000000000000000000000000000000000000000000000000000000008152600401611cb69061389e565b60405180910390fd5b600073ffffffffffffffffffffffffffffffffffffffff168273ffffffffffffffffffffffffffffffffffffffff1603611d2e576040517f08c379a0000000000000000000000000000000000000000000000000000000008152600401611d2590613930565b60405180910390fd5b6000808473ffffffffffffffffffffffffffffffffffffffff1673ffffffffffffffffffffffffffffffffffffffff16815260200190815260200160002054811115611daf576040517f08c379a0000000000000000000000000000000000000000000000000000000008152600401611da69061399c565b60405180910390fd5b611e00816000808673ffffffffffffffffffffffffffffffffffffffff1673ffffffffffffffffffffffffffffffffffffffff16815260200190815260200160002054611bf790919063ffffffff16565b6000808573ffffffffffffffffffffffffffffffffffffffff1673ffffffffffffffffffffffffffffffffffffffff16815260200190815260200160002081905550611e93816000808573ffffffffffffffffffffffffffffffffffffffff1673ffffffffffffffffffffffffffffffffffffffff16815260200190815260200160002054611b9990919063ffffffff16565b6000808473ffffffffffffffffffffffffffffffffffffffff1673ffffffffffffffffffffffffffffffffffffffff168152602001908152602001600020819055508173ffffffffffffffffffffffffffffffffffffffff168373ffffffffffffffffffffffffffffffffffffffff167fddf252ad1be2c89b69c2b068fc378daa952ba7f163c4a11628f55a4df523b3ef83604051611f329190612ab7565b60405180910390a3505050565b600073ffffffffffffffffffffffffffffffffffffffff168273ffffffffffffffffffffffffffffffffffffffff1603611fae576040517f08c379a0000000000000000000000000000000000000000000000000000000008152600401611fa590613a2e565b60405180910390fd5b6000808373ffffffffffffffffffffffffffffffffffffffff1673ffffffffffffffffffffffffffffffffffffffff1681526020019081526020016000205481111561202f576040517f08c379a00000000000000000000000000000000000000000000000000000000081526004016120269061399c565b60405180910390fd5b61204481600854611bf790919063ffffffff16565b60088190555061209b816000808573ffffffffffffffffffffffffffffffffffffffff1673ffffffffffffffffffffffffffffffffffffffff16815260200190815260200160002054611bf790919063ffffffff16565b6000808473ffffffffffffffffffffffffffffffffffffffff1673ffffffffffffffffffffffffffffffffffffffff16815260200190815260200160002081905550600073ffffffffffffffffffffffffffffffffffffffff168273ffffffffffffffffffffffffffffffffffffffff167fddf252ad1be2c89b69c2b068fc378daa952ba7f163c4a11628f55a4df523b3ef8360405161213b9190612ab7565b60405180910390a35050565b60006121b77e924ce912344135a3ceb1c30f15190c52ea90a21b404279b1317e29f1919d5383600001602081019061217f9190612b4f565b8460200135856040013560405160200161219c9493929190613a4e565b60405160208183030381529060405280519060200120612260565b9050919050565b6000806000806121ce868661227a565b9250925092506121de82826122d6565b82935050505092915050565b606061222060097f000000000000000000000000000000000000000000000000000000000000000061243a90919063ffffffff16565b905090565b606061225b600a7f000000000000000000000000000000000000000000000000000000000000000061243a90919063ffffffff16565b905090565b600061227361226d6124ea565b836125a1565b9050919050565b600080600060418451036122bf5760008060006020870151925060408701519150606087015160001a90506122b1888285856125e2565b9550955095505050506122cf565b60006002855160001b9250925092505b9250925092565b600060038111156122ea576122e9613a93565b5b8260038111156122fd576122fc613a93565b5b0315612436576001600381111561231757612316613a93565b5b82600381111561232a57612329613a93565b5b03612361576040517ff645eedf00000000000000000000000000000000000000000000000000000000815260040160405180910390fd5b6002600381111561237557612374613a93565b5b82600381111561238857612387613a93565b5b036123cd578060001c6040517ffce698f70000000000000000000000000000000000000000000000000000000081526004016123c49190612ab7565b60405180910390fd5b6003808111156123e0576123df613a93565b5b8260038111156123f3576123f2613a93565b5b0361243557806040517fd78bce0c00000000000000000000000000000000000000000000000000000000815260040161242c9190613ac2565b60405180910390fd5b5b5050565b606060ff60001b831461245757612450836126d6565b90506124e4565b81805461246390613087565b80601f016020809104026020016040519081016040528092919081815260200182805461248f90613087565b80156124dc5780601f106124b1576101008083540402835291602001916124dc565b820191906000526020600020905b8154815290600101906020018083116124bf57829003601f168201915b505050505090505b92915050565b60007f000000000000000000000000000000000000000000000000000000000000000073ffffffffffffffffffffffffffffffffffffffff163073ffffffffffffffffffffffffffffffffffffffff1614801561256657507f000000000000000000000000000000000000000000000000000000000000000046145b15612593577f0000000000000000000000000000000000000000000000000000000000000000905061259e565b61259b61274a565b90505b90565b60006040517f190100000000000000000000000000000000000000000000000000000000000081528360028201528260228201526042812091505092915050565b60008060007f7fffffffffffffffffffffffffffffff5d576e7357a4501ddfe92f46681b20a08460001c11156126225760006003859250925092506126cc565b6000600188888888604051600081526020016040526040516126479493929190613add565b6020604051602081039080840390855afa158015612669573d6000803e3d6000fd5b505050602060405103519050600073ffffffffffffffffffffffffffffffffffffffff168173ffffffffffffffffffffffffffffffffffffffff16036126bd57600060016000801b935093509350506126cc565b8060008060001b935093509350505b9450945094915050565b606060006126e3836127e0565b90506000602067ffffffffffffffff811115612702576127016133d1565b5b6040519080825280601f01601f1916602001820160405280156127345781602001600182028036833780820191505090505b5090508181528360208201528092505050919050565b60007f8b73c3c69bb8fe3d512ecc4cf759cc79239f7b179b0ffacaa9a75d522b39400f7f00000000000000000000000000000000000000000000000000000000000000007f000000000000000000000000000000000000000000000000000000000000000046306040516020016127c5959493929190613b22565b60405160208183030381529060405280519060200120905090565b60008060ff8360001c169050601f811115612827576040517fb3512b0c00000000000000000000000000000000000000000000000000000000815260040160405180910390fd5b80915050919050565b600080fd5b600080fd5b60007fffffffff0000000000000000000000000000000000000000000000000000000082169050919050565b61286f8161283a565b811461287a57600080fd5b50565b60008135905061288c81612866565b92915050565b6000602082840312156128a8576128a7612830565b5b60006128b68482850161287d565b91505092915050565b60008115159050919050565b6128d4816128bf565b82525050565b60006020820190506128ef60008301846128cb565b92915050565b600081519050919050565b600082825260208201905092915050565b60005b8381101561292f578082015181840152602081019050612914565b60008484015250505050565b6000601f19601f8301169050919050565b6000612957826128f5565b6129618185612900565b9350612971818560208601612911565b61297a8161293b565b840191505092915050565b6000602082019050818103600083015261299f818461294c565b905092915050565b600073ffffffffffffffffffffffffffffffffffffffff82169050919050565b60006129d2826129a7565b9050919050565b6129e2816129c7565b81146129ed57600080fd5b50565b6000813590506129ff816129d9565b92915050565b6000819050919050565b612a1881612a05565b8114612a2357600080fd5b50565b600081359050612a3581612a0f565b92915050565b60008060408385031215612a5257612a51612830565b5b6000612a60858286016129f0565b9250506020612a7185828601612a26565b9150509250929050565b600060208284031215612a9157612a90612830565b5b6000612a9f84828501612a26565b91505092915050565b612ab181612a05565b82525050565b6000602082019050612acc6000830184612aa8565b92915050565b612adb816129c7565b82525050565b6000602082019050612af66000830184612ad2565b92915050565b600080600060608486031215612b1557612b14612830565b5b6000612b23868287016129f0565b9350506020612b34868287016129f0565b9250506040612b4586828701612a26565b9150509250925092565b600060208284031215612b6557612b64612830565b5b6000612b73848285016129f0565b91505092915050565b600060ff82169050919050565b612b9281612b7c565b82525050565b6000602082019050612bad6000830184612b89565b92915050565b600080fd5b600060608284031215612bce57612bcd612bb3565b5b81905092915050565b600080fd5b600080fd5b600080fd5b60008083601f840112612bfc57612bfb612bd7565b5b8235905067ffffffffffffffff811115612c1957612c18612bdc565b5b602083019150836001820283011115612c3557612c34612be1565b5b9250929050565b600080600060808486031215612c5557612c54612830565b5b6000612c6386828701612bb8565b935050606084013567ffffffffffffffff811115612c8457612c83612835565b5b612c9086828701612be6565b92509250509250925092565b60007fff0000000000000000000000000000000000000000000000000000000000000082169050919050565b612cd181612c9c565b82525050565b6000819050919050565b612cea81612cd7565b82525050565b600081519050919050565b600082825260208201905092915050565b6000819050602082019050919050565b612d2581612a05565b82525050565b6000612d378383612d1c565b60208301905092915050565b6000602082019050919050565b6000612d5b82612cf0565b612d658185612cfb565b9350612d7083612d0c565b8060005b83811015612da1578151612d888882612d2b565b9750612d9383612d43565b925050600181019050612d74565b5085935050505092915050565b600060e082019050612dc3600083018a612cc8565b8181036020830152612dd5818961294c565b90508181036040830152612de9818861294c565b9050612df86060830187612aa8565b612e056080830186612ad2565b612e1260a0830185612ce1565b81810360c0830152612e248184612d50565b905098975050505050505050565b60008083601f840112612e4857612e47612bd7565b5b8235905067ffffffffffffffff811115612e6557612e64612bdc565b5b602083019150836020820283011115612e8157612e80612be1565b5b9250929050565b612e91816128bf565b8114612e9c57600080fd5b50565b600081359050612eae81612e88565b92915050565b600080600060408486031215612ecd57612ecc612830565b5b600084013567ffffffffffffffff811115612eeb57612eea612835565b5b612ef786828701612e32565b93509350506020612f0a86828701612e9f565b9150509250925092565b600060208284031215612f2a57612f29612830565b5b6000612f3884828501612e9f565b91505092915050565b60008083601f840112612f5757612f56612bd7565b5b8235905067ffffffffffffffff811115612f7457612f73612bdc565b5b602083019150836020820283011115612f9057612f8f612be1565b5b9250929050565b60008060008060408587031215612fb157612fb0612830565b5b600085013567ffffffffffffffff811115612fcf57612fce612835565b5b612fdb87828801612f41565b9450945050602085013567ffffffffffffffff811115612ffe57612ffd612835565b5b61300a87828801612e32565b925092505092959194509250565b6000806040838503121561302f5761302e612830565b5b600061303d858286016129f0565b925050602061304e858286016129f0565b9150509250929050565b7f4e487b7100000000000000000000000000000000000000000000000000000000600052602260045260246000fd5b6000600282049050600182168061309f57607f821691505b6020821081036130b2576130b1613058565b5b50919050565b7f56524332353a20616d6f756e742065786565647320616c6c6f77616e63650000600082015250565b60006130ee601e83612900565b91506130f9826130b8565b602082019050919050565b6000602082019050818103600083015261311d816130e1565b9050919050565b7f526566657272616c426f6e75733a204d61696e7461696e000000000000000000600082015250565b600061315a601783612900565b915061316582613124565b602082019050919050565b600060208201905081810360008301526131898161314d565b9050919050565b7f434c41494d454400000000000000000000000000000000000000000000000000600082015250565b60006131c6600783612900565b91506131d182613190565b602082019050919050565b600060208201905081810360008301526131f5816131b9565b9050919050565b7f494e56414c49445f5349474e4552000000000000000000000000000000000000600082015250565b6000613232600e83612900565b915061323d826131fc565b602082019050919050565b6000602082019050818103600083015261326181613225565b9050919050565b600060408201905061327d6000830185612ad2565b61328a6020830184612aa8565b9392505050565b6000815190506132a081612e88565b92915050565b6000602082840312156132bc576132bb612830565b5b60006132ca84828501613291565b91505092915050565b7f56524332353a2063616c6c6572206973206e6f7420746865206f776e65720000600082015250565b6000613309601e83612900565b9150613314826132d3565b602082019050919050565b60006020820190508181036000830152613338816132fc565b9050919050565b7f56524332353a206f6e6c79206e6577206f776e65722063616e2061636365707460008201527f206f776e65727368697000000000000000000000000000000000000000000000602082015250565b600061339b602a83612900565b91506133a68261333f565b604082019050919050565b600060208201905081810360008301526133ca8161338e565b9050919050565b7f4e487b7100000000000000000000000000000000000000000000000000000000600052604160045260246000fd5b7f546f74616c20696e76616c696400000000000000000000000000000000000000600082015250565b6000613436600d83612900565b915061344182613400565b602082019050919050565b6000602082019050818103600083015261346581613429565b9050919050565b7f4e487b7100000000000000000000000000000000000000000000000000000000600052603260045260246000fd5b7f4d69736d61746368206c656e6774680000000000000000000000000000000000600082015250565b60006134d1600f83612900565b91506134dc8261349b565b602082019050919050565b60006020820190508181036000830152613500816134c4565b9050919050565b7f56524332353a206e6577206f776e657220697320746865207a65726f2061646460008201527f7265737300000000000000000000000000000000000000000000000000000000602082015250565b6000613563602483612900565b915061356e82613507565b604082019050919050565b6000602082019050818103600083015261359281613556565b9050919050565b7f56524332353a20617070726f76652066726f6d20746865207a65726f2061646460008201527f7265737300000000000000000000000000000000000000000000000000000000602082015250565b60006135f5602483612900565b915061360082613599565b604082019050919050565b60006020820190508181036000830152613624816135e8565b9050919050565b7f56524332353a20617070726f766520746f20746865207a65726f20616464726560008201527f7373000000000000000000000000000000000000000000000000000000000000602082015250565b6000613687602283612900565b91506136928261362b565b604082019050919050565b600060208201905081810360008301526136b68161367a565b9050919050565b7f4e487b7100000000000000000000000000000000000000000000000000000000600052601160045260246000fd5b60006136f782612a05565b915061370283612a05565b925082820190508082111561371a576137196136bd565b5b92915050565b7f536166654d6174683a206164646974696f6e206f766572666c6f770000000000600082015250565b6000613756601b83612900565b915061376182613720565b602082019050919050565b6000602082019050818103600083015261378581613749565b9050919050565b7f536166654d6174683a207375627472616374696f6e206f766572666c6f770000600082015250565b60006137c2601e83612900565b91506137cd8261378c565b602082019050919050565b600060208201905081810360008301526137f1816137b5565b9050919050565b600061380382612a05565b915061380e83612a05565b9250828203905081811115613826576138256136bd565b5b92915050565b7f56524332353a207472616e736665722066726f6d20746865207a65726f20616460008201527f6472657373000000000000000000000000000000000000000000000000000000602082015250565b6000613888602583612900565b91506138938261382c565b604082019050919050565b600060208201905081810360008301526138b78161387b565b9050919050565b7f56524332353a207472616e7366657220746f20746865207a65726f206164647260008201527f6573730000000000000000000000000000000000000000000000000000000000602082015250565b600061391a602383612900565b9150613925826138be565b604082019050919050565b600060208201905081810360008301526139498161390d565b9050919050565b7f56524332353a20696e7375666669656e742062616c616e636500000000000000600082015250565b6000613986601983612900565b915061399182613950565b602082019050919050565b600060208201905081810360008301526139b581613979565b9050919050565b7f56524332353a206275726e2066726f6d20746865207a65726f2061646472657360008201527f7300000000000000000000000000000000000000000000000000000000000000602082015250565b6000613a18602183612900565b9150613a23826139bc565b604082019050919050565b60006020820190508181036000830152613a4781613a0b565b9050919050565b6000608082019050613a636000830187612ce1565b613a706020830186612ad2565b613a7d6040830185612aa8565b613a8a6060830184612aa8565b95945050505050565b7f4e487b7100000000000000000000000000000000000000000000000000000000600052602160045260246000fd5b6000602082019050613ad76000830184612ce1565b92915050565b6000608082019050613af26000830187612ce1565b613aff6020830186612b89565b613b0c6040830185612ce1565b613b196060830184612ce1565b95945050505050565b600060a082019050613b376000830188612ce1565b613b446020830187612ce1565b613b516040830186612ce1565b613b5e6060830185612aa8565b613b6b6080830184612ad2565b969550505050505056fea264697066735822122014a7d537379e62c01b06c943c2e365a5680e1dd34f41f688bc3dcb1d85adbd4b64736f6c63430008180033",
  "linkReferences": {},
  "deployedLinkReferences": {}
}