{
  "_format": "hh-sol-artifact-1",
  "contractName": "CreateTour",
  "sourceName": "contracts/CreateTour.sol",
  "abi": [
    {
      "inputs": [
        {
          "internalType": "string",
          "name": "name",
          "type": "string"
        },
        {
          "internalType": "string",
          "name": "symbol",
          "type": "string"
        },
        {
          "internalType": "uint8",
          "name": "decimals_",
          "type": "uint8"
        },
        {
          "internalType": "address",
          "name": "_token",
          "type": "address"
        },
        {
          "internalType": "uint256",
          "name": "_protocolFee",
          "type": "uint256"
        }
      ],
      "stateMutability": "nonpayable",
      "type": "constructor"
    },
    {
      "anonymous": false,
      "inputs": [
        {
          "indexed": true,
          "internalType": "address",
          "name": "owner",
          "type": "address"
        },
        {
          "indexed": true,
          "internalType": "address",
          "name": "spender",
          "type": "address"
        },
        {
          "indexed": false,
          "internalType": "uint256",
          "name": "value",
          "type": "uint256"
        }
      ],
      "name": "Approval",
      "type": "event"
    },
    {
      "anonymous": false,
      "inputs": [
        {
          "indexed": true,
          "internalType": "address",
          "name": "from",
          "type": "address"
        },
        {
          "indexed": true,
          "internalType": "address",
          "name": "to",
          "type": "address"
        },
        {
          "indexed": true,
          "internalType": "address",
          "name": "issuer",
          "type": "address"
        },
        {
          "indexed": false,
          "internalType": "uint256",
          "name": "value",
          "type": "uint256"
        }
      ],
      "name": "Fee",
      "type": "event"
    },
    {
      "anonymous": false,
      "inputs": [
        {
          "indexed": false,
          "internalType": "uint256",
          "name": "fee",
          "type": "uint256"
        }
      ],
      "name": "FeeUpdated",
      "type": "event"
    },
    {
      "anonymous": false,
      "inputs": [
        {
          "indexed": true,
          "internalType": "address",
          "name": "previousOwner",
          "type": "address"
        },
        {
          "indexed": true,
          "internalType": "address",
          "name": "newOwner",
          "type": "address"
        }
      ],
      "name": "OwnershipTransferred",
      "type": "event"
    },
    {
      "anonymous": false,
      "inputs": [
        {
          "indexed": true,
          "internalType": "address",
          "name": "from",
          "type": "address"
        },
        {
          "indexed": true,
          "internalType": "address",
          "name": "to",
          "type": "address"
        },
        {
          "indexed": false,
          "internalType": "uint256",
          "name": "value",
          "type": "uint256"
        }
      ],
      "name": "Transfer",
      "type": "event"
    },
    {
      "inputs": [],
      "name": "acceptOwnership",
      "outputs": [],
      "stateMutability": "nonpayable",
      "type": "function"
    },
    {
      "inputs": [
        {
          "internalType": "address",
          "name": "owner",
          "type": "address"
        },
        {
          "internalType": "address",
          "name": "spender",
          "type": "address"
        }
      ],
      "name": "allowance",
      "outputs": [
        {
          "internalType": "uint256",
          "name": "",
          "type": "uint256"
        }
      ],
      "stateMutability": "view",
      "type": "function"
    },
    {
      "inputs": [
        {
          "internalType": "address",
          "name": "spender",
          "type": "address"
        },
        {
          "internalType": "uint256",
          "name": "amount",
          "type": "uint256"
        }
      ],
      "name": "approve",
      "outputs": [
        {
          "internalType": "bool",
          "name": "",
          "type": "bool"
        }
      ],
      "stateMutability": "nonpayable",
      "type": "function"
    },
    {
      "inputs": [
        {
          "internalType": "address",
          "name": "owner",
          "type": "address"
        }
      ],
      "name": "balanceOf",
      "outputs": [
        {
          "internalType": "uint256",
          "name": "",
          "type": "uint256"
        }
      ],
      "stateMutability": "view",
      "type": "function"
    },
    {
      "inputs": [
        {
          "internalType": "address",
          "name": "",
          "type": "address"
        }
      ],
      "name": "blackList",
      "outputs": [
        {
          "internalType": "bool",
          "name": "",
          "type": "bool"
        }
      ],
      "stateMutability": "view",
      "type": "function"
    },
    {
      "inputs": [
        {
          "internalType": "uint256",
          "name": "amount",
          "type": "uint256"
        }
      ],
      "name": "burn",
      "outputs": [
        {
          "internalType": "bool",
          "name": "",
          "type": "bool"
        }
      ],
      "stateMutability": "nonpayable",
      "type": "function"
    },
    {
      "inputs": [
        {
          "internalType": "bytes32",
          "name": "id",
          "type": "bytes32"
        }
      ],
      "name": "cancelTour",
      "outputs": [],
      "stateMutability": "nonpayable",
      "type": "function"
    },
    {
      "inputs": [
        {
          "internalType": "bytes32",
          "name": "id",
          "type": "bytes32"
        },
        {
          "internalType": "address[]",
          "name": "participants",
          "type": "address[]"
        }
      ],
      "name": "checkAttendence",
      "outputs": [],
      "stateMutability": "nonpayable",
      "type": "function"
    },
    {
      "inputs": [
        {
          "internalType": "bytes32",
          "name": "id",
          "type": "bytes32"
        }
      ],
      "name": "checkInfo",
      "outputs": [
        {
          "components": [
            {
              "internalType": "uint256",
              "name": "startTime",
              "type": "uint256"
            },
            {
              "internalType": "uint256",
              "name": "endTimeRegister",
              "type": "uint256"
            },
            {
              "internalType": "uint256",
              "name": "priceTour",
              "type": "uint256"
            },
            {
              "internalType": "uint256",
              "name": "guaranteeFee",
              "type": "uint256"
            },
            {
              "internalType": "uint256",
              "name": "limitClient",
              "type": "uint256"
            },
            {
              "internalType": "bool",
              "name": "status",
              "type": "bool"
            },
            {
              "internalType": "address",
              "name": "tourGuide",
              "type": "address"
            }
          ],
          "internalType": "struct CreateTour.TourInfo",
          "name": "",
          "type": "tuple"
        }
      ],
      "stateMutability": "view",
      "type": "function"
    },
    {
      "inputs": [
        {
          "internalType": "bytes32",
          "name": "id",
          "type": "bytes32"
        },
        {
          "internalType": "address",
          "name": "user",
          "type": "address"
        }
      ],
      "name": "checkIsRegistered",
      "outputs": [
        {
          "internalType": "bool",
          "name": "",
          "type": "bool"
        }
      ],
      "stateMutability": "view",
      "type": "function"
    },
    {
      "inputs": [
        {
          "internalType": "bytes32",
          "name": "id",
          "type": "bytes32"
        }
      ],
      "name": "checkNumberParticipants",
      "outputs": [
        {
          "internalType": "uint256",
          "name": "",
          "type": "uint256"
        }
      ],
      "stateMutability": "view",
      "type": "function"
    },
    {
      "inputs": [],
      "name": "checkProtocolFee",
      "outputs": [
        {
          "internalType": "uint256",
          "name": "",
          "type": "uint256"
        }
      ],
      "stateMutability": "view",
      "type": "function"
    },
    {
      "inputs": [
        {
          "internalType": "bytes32",
          "name": "id",
          "type": "bytes32"
        }
      ],
      "name": "claimGuaranteeFee",
      "outputs": [],
      "stateMutability": "nonpayable",
      "type": "function"
    },
    {
      "inputs": [
        {
          "internalType": "bytes32",
          "name": "id",
          "type": "bytes32"
        }
      ],
      "name": "claimWhenCancel",
      "outputs": [],
      "stateMutability": "nonpayable",
      "type": "function"
    },
    {
      "inputs": [
        {
          "internalType": "bytes32",
          "name": "id",
          "type": "bytes32"
        },
        {
          "internalType": "uint256",
          "name": "endTimeRegister",
          "type": "uint256"
        },
        {
          "internalType": "uint256",
          "name": "priceTour",
          "type": "uint256"
        },
        {
          "internalType": "uint256",
          "name": "guaranteeFee",
          "type": "uint256"
        },
        {
          "internalType": "uint256",
          "name": "limitClient",
          "type": "uint256"
        }
      ],
      "name": "createTour",
      "outputs": [],
      "stateMutability": "nonpayable",
      "type": "function"
    },
    {
      "inputs": [],
      "name": "decimals",
      "outputs": [
        {
          "internalType": "uint8",
          "name": "",
          "type": "uint8"
        }
      ],
      "stateMutability": "view",
      "type": "function"
    },
    {
      "inputs": [
        {
          "internalType": "uint256[]",
          "name": "_amounts",
          "type": "uint256[]"
        },
        {
          "internalType": "address[]",
          "name": "_tokens",
          "type": "address[]"
        }
      ],
      "name": "emergencyWithdraw",
      "outputs": [],
      "stateMutability": "payable",
      "type": "function"
    },
    {
      "inputs": [
        {
          "internalType": "uint256",
          "name": "value",
          "type": "uint256"
        }
      ],
      "name": "estimateFee",
      "outputs": [
        {
          "internalType": "uint256",
          "name": "",
          "type": "uint256"
        }
      ],
      "stateMutability": "view",
      "type": "function"
    },
    {
      "inputs": [],
      "name": "issuer",
      "outputs": [
        {
          "internalType": "address",
          "name": "",
          "type": "address"
        }
      ],
      "stateMutability": "view",
      "type": "function"
    },
    {
      "inputs": [],
      "name": "minFee",
      "outputs": [
        {
          "internalType": "uint256",
          "name": "",
          "type": "uint256"
        }
      ],
      "stateMutability": "view",
      "type": "function"
    },
    {
      "inputs": [],
      "name": "name",
      "outputs": [
        {
          "internalType": "string",
          "name": "",
          "type": "string"
        }
      ],
      "stateMutability": "view",
      "type": "function"
    },
    {
      "inputs": [],
      "name": "owner",
      "outputs": [
        {
          "internalType": "address",
          "name": "",
          "type": "address"
        }
      ],
      "stateMutability": "view",
      "type": "function"
    },
    {
      "inputs": [
        {
          "internalType": "bytes32",
          "name": "id",
          "type": "bytes32"
        }
      ],
      "name": "registerTour",
      "outputs": [],
      "stateMutability": "nonpayable",
      "type": "function"
    },
    {
      "inputs": [
        {
          "internalType": "bytes32",
          "name": "id",
          "type": "bytes32"
        },
        {
          "internalType": "bool",
          "name": "status",
          "type": "bool"
        }
      ],
      "name": "setBlackList",
      "outputs": [],
      "stateMutability": "nonpayable",
      "type": "function"
    },
    {
      "inputs": [
        {
          "internalType": "uint256",
          "name": "fee",
          "type": "uint256"
        }
      ],
      "name": "setFee",
      "outputs": [],
      "stateMutability": "nonpayable",
      "type": "function"
    },
    {
      "inputs": [
        {
          "internalType": "uint256",
          "name": "newFee",
          "type": "uint256"
        }
      ],
      "name": "setProtocolFee",
      "outputs": [],
      "stateMutability": "nonpayable",
      "type": "function"
    },
    {
      "inputs": [
        {
          "internalType": "address",
          "name": "newToken",
          "type": "address"
        }
      ],
      "name": "setToken",
      "outputs": [],
      "stateMutability": "nonpayable",
      "type": "function"
    },
    {
      "inputs": [
        {
          "internalType": "bytes4",
          "name": "interfaceId",
          "type": "bytes4"
        }
      ],
      "name": "supportsInterface",
      "outputs": [
        {
          "internalType": "bool",
          "name": "",
          "type": "bool"
        }
      ],
      "stateMutability": "view",
      "type": "function"
    },
    {
      "inputs": [],
      "name": "symbol",
      "outputs": [
        {
          "internalType": "string",
          "name": "",
          "type": "string"
        }
      ],
      "stateMutability": "view",
      "type": "function"
    },
    {
      "inputs": [],
      "name": "totalSupply",
      "outputs": [
        {
          "internalType": "uint256",
          "name": "",
          "type": "uint256"
        }
      ],
      "stateMutability": "view",
      "type": "function"
    },
    {
      "inputs": [
        {
          "internalType": "address",
          "name": "recipient",
          "type": "address"
        },
        {
          "internalType": "uint256",
          "name": "amount",
          "type": "uint256"
        }
      ],
      "name": "transfer",
      "outputs": [
        {
          "internalType": "bool",
          "name": "",
          "type": "bool"
        }
      ],
      "stateMutability": "nonpayable",
      "type": "function"
    },
    {
      "inputs": [
        {
          "internalType": "address",
          "name": "sender",
          "type": "address"
        },
        {
          "internalType": "address",
          "name": "recipient",
          "type": "address"
        },
        {
          "internalType": "uint256",
          "name": "amount",
          "type": "uint256"
        }
      ],
      "name": "transferFrom",
      "outputs": [
        {
          "internalType": "bool",
          "name": "",
          "type": "bool"
        }
      ],
      "stateMutability": "nonpayable",
      "type": "function"
    },
    {
      "inputs": [
        {
          "internalType": "address",
          "name": "newOwner",
          "type": "address"
        }
      ],
      "name": "transferOwnership",
      "outputs": [],
      "stateMutability": "nonpayable",
      "type": "function"
    }
  ],
  "bytecode": "0x60806040523480156200001157600080fd5b5060405162004fbb38038062004fbb833981810160405281019062000037919062000381565b84848482600590816200004b919062000688565b5081600690816200005d919062000688565b5080600760006101000a81548160ff021916908360ff16021790555033600260006101000a81548173ffffffffffffffffffffffffffffffffffffffff021916908373ffffffffffffffffffffffffffffffffffffffff16021790555050505081600a60006101000a81548173ffffffffffffffffffffffffffffffffffffffff021916908373ffffffffffffffffffffffffffffffffffffffff1602179055508060098190555050505050506200076f565b6000604051905090565b600080fd5b600080fd5b600080fd5b600080fd5b6000601f19601f8301169050919050565b7f4e487b7100000000000000000000000000000000000000000000000000000000600052604160045260246000fd5b62000179826200012e565b810181811067ffffffffffffffff821117156200019b576200019a6200013f565b5b80604052505050565b6000620001b062000110565b9050620001be82826200016e565b919050565b600067ffffffffffffffff821115620001e157620001e06200013f565b5b620001ec826200012e565b9050602081019050919050565b60005b8381101562000219578082015181840152602081019050620001fc565b60008484015250505050565b60006200023c6200023684620001c3565b620001a4565b9050828152602081018484840111156200025b576200025a62000129565b5b62000268848285620001f9565b509392505050565b600082601f83011262000288576200028762000124565b5b81516200029a84826020860162000225565b91505092915050565b600060ff82169050919050565b620002bb81620002a3565b8114620002c757600080fd5b50565b600081519050620002db81620002b0565b92915050565b600073ffffffffffffffffffffffffffffffffffffffff82169050919050565b60006200030e82620002e1565b9050919050565b620003208162000301565b81146200032c57600080fd5b50565b600081519050620003408162000315565b92915050565b6000819050919050565b6200035b8162000346565b81146200036757600080fd5b50565b6000815190506200037b8162000350565b92915050565b600080600080600060a08688031215620003a0576200039f6200011a565b5b600086015167ffffffffffffffff811115620003c157620003c06200011f565b5b620003cf8882890162000270565b955050602086015167ffffffffffffffff811115620003f357620003f26200011f565b5b620004018882890162000270565b94505060406200041488828901620002ca565b935050606062000427888289016200032f565b92505060806200043a888289016200036a565b9150509295509295909350565b600081519050919050565b7f4e487b7100000000000000000000000000000000000000000000000000000000600052602260045260246000fd5b600060028204905060018216806200049a57607f821691505b602082108103620004b057620004af62000452565b5b50919050565b60008190508160005260206000209050919050565b60006020601f8301049050919050565b600082821b905092915050565b6000600883026200051a7fffffffffffffffffffffffffffffffffffffffffffffffffffffffffffffffff82620004db565b620005268683620004db565b95508019841693508086168417925050509392505050565b6000819050919050565b600062000569620005636200055d8462000346565b6200053e565b62000346565b9050919050565b6000819050919050565b620005858362000548565b6200059d620005948262000570565b848454620004e8565b825550505050565b600090565b620005b4620005a5565b620005c18184846200057a565b505050565b5b81811015620005e957620005dd600082620005aa565b600181019050620005c7565b5050565b601f82111562000638576200060281620004b6565b6200060d84620004cb565b810160208510156200061d578190505b620006356200062c85620004cb565b830182620005c6565b50505b505050565b600082821c905092915050565b60006200065d600019846008026200063d565b1980831691505092915050565b60006200067883836200064a565b9150826002028217905092915050565b620006938262000447565b67ffffffffffffffff811115620006af57620006ae6200013f565b5b620006bb825462000481565b620006c8828285620005ed565b600060209050601f831160018114620007005760008415620006eb578287015190505b620006f785826200066a565b86555062000767565b601f1984166200071086620004b6565b60005b828110156200073a5784890151825560018201915060208501945060208101905062000713565b868310156200075a578489015162000756601f8916826200064a565b8355505b6001600288020188555050505b505050505050565b61483c806200077f6000396000f3fe60806040526004361061017d5760003560e01c8062afedda1461018257806301ffc9a7146101ab57806306fdde03146101e8578063095ea7b3146102135780630b37023014610250578063127e8e4d14610279578063144fa6d7146102b657806318160ddd146102df5780631d1438481461030a57806323b872dd1461033557806324ec7590146103725780632547ce891461039d578063313ce567146103c657806342966c68146103f15780634838d1651461042e5780634cb0ad381461046b57806365dff4601461049457806369fe0e2d146104bd57806370a08231146104e657806374893f7c14610523578063787dce3d1461056057806379ba5097146105895780638232c086146105a057806383872c64146105c95780638da5cb5b1461060657806395d89b4114610631578063a9059cbb1461065c578063b87a255614610699578063d498e177146106c4578063d9d94703146106ed578063dd62ed3e14610709578063eb0cbf2714610746578063f2fde38b14610783575b600080fd5b34801561018e57600080fd5b506101a960048036038101906101a491906133fe565b6107ac565b005b3480156101b757600080fd5b506101d260048036038101906101cd9190613496565b6108d3565b6040516101df91906134d2565b60405180910390f35b3480156101f457600080fd5b506101fd61093d565b60405161020a919061357d565b60405180910390f35b34801561021f57600080fd5b5061023a60048036038101906102359190613633565b6109cf565b60405161024791906134d2565b60405180910390f35b34801561025c57600080fd5b5061027760048036038101906102729190613673565b6109ff565b005b34801561028557600080fd5b506102a0600480360381019061029b91906136a0565b610c26565b6040516102ad91906136dc565b60405180910390f35b3480156102c257600080fd5b506102dd60048036038101906102d891906136f7565b610c66565b005b3480156102eb57600080fd5b506102f4610d3a565b60405161030191906136dc565b60405180910390f35b34801561031657600080fd5b5061031f610d44565b60405161032c9190613733565b60405180910390f35b34801561034157600080fd5b5061035c6004803603810190610357919061374e565b610d6e565b60405161036991906134d2565b60405180910390f35b34801561037e57600080fd5b50610387610f90565b60405161039491906136dc565b60405180910390f35b3480156103a957600080fd5b506103c460048036038101906103bf9190613673565b610f9a565b005b3480156103d257600080fd5b506103db6110fc565b6040516103e891906137bd565b60405180910390f35b3480156103fd57600080fd5b50610418600480360381019061041391906136a0565b611113565b60405161042591906134d2565b60405180910390f35b34801561043a57600080fd5b50610455600480360381019061045091906136f7565b611141565b60405161046291906134d2565b60405180910390f35b34801561047757600080fd5b50610492600480360381019061048d9190613673565b611161565b005b3480156104a057600080fd5b506104bb60048036038101906104b69190613673565b611802565b005b3480156104c957600080fd5b506104e460048036038101906104df91906136a0565b611afa565b005b3480156104f257600080fd5b5061050d600480360381019061050891906136f7565b611bcb565b60405161051a91906136dc565b60405180910390f35b34801561052f57600080fd5b5061054a60048036038101906105459190613673565b611c13565b6040516105579190613893565b60405180910390f35b34801561056c57600080fd5b50610587600480360381019061058291906136a0565b611ce9565b005b34801561059557600080fd5b5061059e611d83565b005b3480156105ac57600080fd5b506105c760048036038101906105c29190613913565b611f5e565b005b3480156105d557600080fd5b506105f060048036038101906105eb9190613673565b612214565b6040516105fd91906136dc565b60405180910390f35b34801561061257600080fd5b5061061b612231565b6040516106289190613733565b60405180910390f35b34801561063d57600080fd5b5061064661225b565b604051610653919061357d565b60405180910390f35b34801561066857600080fd5b50610683600480360381019061067e9190613633565b6122ed565b60405161069091906134d2565b60405180910390f35b3480156106a557600080fd5b506106ae61231c565b6040516106bb91906136dc565b60405180910390f35b3480156106d057600080fd5b506106eb60048036038101906106e69190613973565b612326565b005b61070760048036038101906107029190613a44565b6125ed565b005b34801561071557600080fd5b50610730600480360381019061072b9190613ac5565b61284e565b60405161073d91906136dc565b60405180910390f35b34801561075257600080fd5b5061076d60048036038101906107689190613b05565b6128d5565b60405161077a91906134d2565b60405180910390f35b34801561078f57600080fd5b506107aa60048036038101906107a591906136f7565b61293d565b005b3373ffffffffffffffffffffffffffffffffffffffff16600260009054906101000a900473ffffffffffffffffffffffffffffffffffffffff1673ffffffffffffffffffffffffffffffffffffffff161461083c576040517f08c379a000000000000000000000000000000000000000000000000000000000815260040161083390613b91565b60405180910390fd5b6000600b6000848152602001908152602001600020905081600c60008360050160019054906101000a900473ffffffffffffffffffffffffffffffffffffffff1673ffffffffffffffffffffffffffffffffffffffff1673ffffffffffffffffffffffffffffffffffffffff16815260200190815260200160002060006101000a81548160ff021916908315150217905550505050565b60007f08617865000000000000000000000000000000000000000000000000000000007bffffffffffffffffffffffffffffffffffffffffffffffffffffffff1916827bffffffffffffffffffffffffffffffffffffffffffffffffffffffff1916149050919050565b60606005805461094c90613be0565b80601f016020809104026020016040519081016040528092919081815260200182805461097890613be0565b80156109c55780601f1061099a576101008083540402835291602001916109c5565b820191906000526020600020905b8154815290600101906020018083116109a857829003601f168201915b5050505050905090565b6000806109dc6000610c26565b90506109e9338585612a80565b6109f4333083612c49565b600191505092915050565b6000600b60008381526020019081526020016000209050600e600083815260200190815260200160002060003373ffffffffffffffffffffffffffffffffffffffff1673ffffffffffffffffffffffffffffffffffffffff16815260200190815260200160002060009054906101000a900460ff16610ab3576040517f08c379a0000000000000000000000000000000000000000000000000000000008152600401610aaa90613c5d565b60405180910390fd5b8060050160009054906101000a900460ff1615610b05576040517f08c379a0000000000000000000000000000000000000000000000000000000008152600401610afc90613cc9565b60405180910390fd5b600a60009054906101000a900473ffffffffffffffffffffffffffffffffffffffff1673ffffffffffffffffffffffffffffffffffffffff1663a9059cbb3383600201548460030154610b589190613d18565b6040518363ffffffff1660e01b8152600401610b75929190613d4c565b6020604051808303816000875af1158015610b94573d6000803e3d6000fd5b505050506040513d601f19601f82011682018060405250810190610bb89190613d8a565b506000600e600084815260200190815260200160002060003373ffffffffffffffffffffffffffffffffffffffff1673ffffffffffffffffffffffffffffffffffffffff16815260200190815260200160002060006101000a81548160ff0219169083151502179055505050565b6000610c473373ffffffffffffffffffffffffffffffffffffffff16612d47565b15610c555760009050610c61565b610c5e82612d5a565b90505b919050565b3373ffffffffffffffffffffffffffffffffffffffff16600260009054906101000a900473ffffffffffffffffffffffffffffffffffffffff1673ffffffffffffffffffffffffffffffffffffffff1614610cf6576040517f08c379a0000000000000000000000000000000000000000000000000000000008152600401610ced90613b91565b60405180910390fd5b80600a60006101000a81548173ffffffffffffffffffffffffffffffffffffffff021916908373ffffffffffffffffffffffffffffffffffffffff16021790555050565b6000600854905090565b6000600260009054906101000a900473ffffffffffffffffffffffffffffffffffffffff16905090565b600080610d7a83610c26565b9050610d8f8184612d8390919063ffffffff16565b600460008773ffffffffffffffffffffffffffffffffffffffff1673ffffffffffffffffffffffffffffffffffffffff16815260200190815260200160002060003373ffffffffffffffffffffffffffffffffffffffff1673ffffffffffffffffffffffffffffffffffffffff168152602001908152602001600020541015610e4d576040517f08c379a0000000000000000000000000000000000000000000000000000000008152600401610e4490613e03565b60405180910390fd5b610eee81610ee085600460008a73ffffffffffffffffffffffffffffffffffffffff1673ffffffffffffffffffffffffffffffffffffffff16815260200190815260200160002060003373ffffffffffffffffffffffffffffffffffffffff1673ffffffffffffffffffffffffffffffffffffffff16815260200190815260200160002054612de190919063ffffffff16565b612de190919063ffffffff16565b600460008773ffffffffffffffffffffffffffffffffffffffff1673ffffffffffffffffffffffffffffffffffffffff16815260200190815260200160002060003373ffffffffffffffffffffffffffffffffffffffff1673ffffffffffffffffffffffffffffffffffffffff16815260200190815260200160002081905550610f79858585612e3a565b610f84858583612c49565b60019150509392505050565b6000600154905090565b6000600b600083815260200190815260200160002090508060010154421115610ff8576040517f08c379a0000000000000000000000000000000000000000000000000000000008152600401610fef90613e6f565b60405180910390fd5b3373ffffffffffffffffffffffffffffffffffffffff168160050160019054906101000a900473ffffffffffffffffffffffffffffffffffffffff1673ffffffffffffffffffffffffffffffffffffffff161461108a576040517f08c379a000000000000000000000000000000000000000000000000000000000815260040161108190613edb565b60405180910390fd5b8060050160009054906101000a900460ff166110db576040517f08c379a00000000000000000000000000000000000000000000000000000000081526004016110d290613f47565b60405180910390fd5b60008160050160006101000a81548160ff0219169083151502179055505050565b6000600760009054906101000a900460ff16905090565b6000806111206000610c26565b905061112c3384613129565b611137333083612c49565b6001915050919050565b600c6020528060005260406000206000915054906101000a900460ff1681565b6000600b60008381526020019081526020016000209050600e600083815260200190815260200160002060003373ffffffffffffffffffffffffffffffffffffffff1673ffffffffffffffffffffffffffffffffffffffff16815260200190815260200160002060009054906101000a900460ff16611215576040517f08c379a000000000000000000000000000000000000000000000000000000000815260040161120c90613c5d565b60405180910390fd5b6010600083815260200190815260200160002060003373ffffffffffffffffffffffffffffffffffffffff1673ffffffffffffffffffffffffffffffffffffffff16815260200190815260200160002060009054906101000a900460ff1680156112ed5750600c60008260050160019054906101000a900473ffffffffffffffffffffffffffffffffffffffff1673ffffffffffffffffffffffffffffffffffffffff1673ffffffffffffffffffffffffffffffffffffffff16815260200190815260200160002060009054906101000a900460ff16155b1561146557600a60009054906101000a900473ffffffffffffffffffffffffffffffffffffffff1673ffffffffffffffffffffffffffffffffffffffff1663a9059cbb3383600301546040518363ffffffff1660e01b8152600401611353929190613d4c565b6020604051808303816000875af1158015611372573d6000803e3d6000fd5b505050506040513d601f19601f820116820180604052508101906113969190613d8a565b50600a60009054906101000a900473ffffffffffffffffffffffffffffffffffffffff1673ffffffffffffffffffffffffffffffffffffffff1663a9059cbb8260050160019054906101000a900473ffffffffffffffffffffffffffffffffffffffff1683600201546040518363ffffffff1660e01b815260040161141c929190613d4c565b6020604051808303816000875af115801561143b573d6000803e3d6000fd5b505050506040513d601f19601f8201168201806040525081019061145f9190613d8a565b50611795565b6010600083815260200190815260200160002060003373ffffffffffffffffffffffffffffffffffffffff1673ffffffffffffffffffffffffffffffffffffffff16815260200190815260200160002060009054906101000a900460ff1615801561153e5750600c60008260050160019054906101000a900473ffffffffffffffffffffffffffffffffffffffff1673ffffffffffffffffffffffffffffffffffffffff1673ffffffffffffffffffffffffffffffffffffffff16815260200190815260200160002060009054906101000a900460ff16155b156116df57600a60009054906101000a900473ffffffffffffffffffffffffffffffffffffffff1673ffffffffffffffffffffffffffffffffffffffff1663a9059cbb3383600201546040518363ffffffff1660e01b81526004016115a4929190613d4c565b6020604051808303816000875af11580156115c3573d6000803e3d6000fd5b505050506040513d601f19601f820116820180604052508101906115e79190613d8a565b50600a60009054906101000a900473ffffffffffffffffffffffffffffffffffffffff1673ffffffffffffffffffffffffffffffffffffffff1663a9059cbb8260050160019054906101000a900473ffffffffffffffffffffffffffffffffffffffff1683600301546040518363ffffffff1660e01b815260040161166d929190613d4c565b6020604051808303816000875af115801561168c573d6000803e3d6000fd5b505050506040513d601f19601f820116820180604052508101906116b09190613d8a565b50600d600083815260200190815260200160002060008154809291906116d590613f67565b9190505550611794565b600a60009054906101000a900473ffffffffffffffffffffffffffffffffffffffff1673ffffffffffffffffffffffffffffffffffffffff1663a9059cbb33836002015484600301546117329190613d18565b6040518363ffffffff1660e01b815260040161174f929190613d4c565b6020604051808303816000875af115801561176e573d6000803e3d6000fd5b505050506040513d601f19601f820116820180604052508101906117929190613d8a565b505b5b6000600e600084815260200190815260200160002060003373ffffffffffffffffffffffffffffffffffffffff1673ffffffffffffffffffffffffffffffffffffffff16815260200190815260200160002060006101000a81548160ff0219169083151502179055505050565b6000600b600083815260200190815260200160002090508060050160009054906101000a900460ff1661186a576040517f08c379a000000000000000000000000000000000000000000000000000000000815260040161186190613f47565b60405180910390fd5b600e600083815260200190815260200160002060003373ffffffffffffffffffffffffffffffffffffffff1673ffffffffffffffffffffffffffffffffffffffff16815260200190815260200160002060009054906101000a900460ff1615611908576040517f08c379a00000000000000000000000000000000000000000000000000000000081526004016118ff90613fdc565b60405180910390fd5b8060040154600d60008481526020019081526020016000205410611961576040517f08c379a000000000000000000000000000000000000000000000000000000000815260040161195890614048565b60405180910390fd5b80600101544211156119a8576040517f08c379a000000000000000000000000000000000000000000000000000000000815260040161199f90613e6f565b60405180910390fd5b6000816002015482600301546119be9190613d18565b9050600a60009054906101000a900473ffffffffffffffffffffffffffffffffffffffff1673ffffffffffffffffffffffffffffffffffffffff166323b872dd3330846040518463ffffffff1660e01b8152600401611a1f93929190614068565b6020604051808303816000875af1158015611a3e573d6000803e3d6000fd5b505050506040513d601f19601f82011682018060405250810190611a629190613d8a565b50600d60008481526020019081526020016000206000815480929190611a879061409f565b91905055506001600e600085815260200190815260200160002060003373ffffffffffffffffffffffffffffffffffffffff1673ffffffffffffffffffffffffffffffffffffffff16815260200190815260200160002060006101000a81548160ff021916908315150217905550505050565b3373ffffffffffffffffffffffffffffffffffffffff16600260009054906101000a900473ffffffffffffffffffffffffffffffffffffffff1673ffffffffffffffffffffffffffffffffffffffff1614611b8a576040517f08c379a0000000000000000000000000000000000000000000000000000000008152600401611b8190613b91565b60405180910390fd5b806001819055507f8c4d35e54a3f2ef1134138fd8ea3daee6a3c89e10d2665996babdf70261e2c7681604051611bc091906136dc565b60405180910390a150565b60008060008373ffffffffffffffffffffffffffffffffffffffff1673ffffffffffffffffffffffffffffffffffffffff168152602001908152602001600020549050919050565b611c1b613331565b6000600b60008481526020019081526020016000209050806040518060e001604052908160008201548152602001600182015481526020016002820154815260200160038201548152602001600482015481526020016005820160009054906101000a900460ff161515151581526020016005820160019054906101000a900473ffffffffffffffffffffffffffffffffffffffff1673ffffffffffffffffffffffffffffffffffffffff1673ffffffffffffffffffffffffffffffffffffffff1681525050915050919050565b3373ffffffffffffffffffffffffffffffffffffffff16600260009054906101000a900473ffffffffffffffffffffffffffffffffffffffff1673ffffffffffffffffffffffffffffffffffffffff1614611d79576040517f08c379a0000000000000000000000000000000000000000000000000000000008152600401611d7090613b91565b60405180910390fd5b8060098190555050565b600360009054906101000a900473ffffffffffffffffffffffffffffffffffffffff1673ffffffffffffffffffffffffffffffffffffffff163373ffffffffffffffffffffffffffffffffffffffff1614611e13576040517f08c379a0000000000000000000000000000000000000000000000000000000008152600401611e0a90614159565b60405180910390fd5b6000600260009054906101000a900473ffffffffffffffffffffffffffffffffffffffff169050600360009054906101000a900473ffffffffffffffffffffffffffffffffffffffff16600260006101000a81548173ffffffffffffffffffffffffffffffffffffffff021916908373ffffffffffffffffffffffffffffffffffffffff1602179055506000600360006101000a81548173ffffffffffffffffffffffffffffffffffffffff021916908373ffffffffffffffffffffffffffffffffffffffff160217905550600260009054906101000a900473ffffffffffffffffffffffffffffffffffffffff1673ffffffffffffffffffffffffffffffffffffffff168173ffffffffffffffffffffffffffffffffffffffff167f8be0079c531659141344cd1fd0a4f28419497f9722a3daafe3b4186f6b6457e060405160405180910390a350565b6000600b600085815260200190815260200160002090503373ffffffffffffffffffffffffffffffffffffffff168160050160019054906101000a900473ffffffffffffffffffffffffffffffffffffffff1673ffffffffffffffffffffffffffffffffffffffff1614612007576040517f08c379a0000000000000000000000000000000000000000000000000000000008152600401611ffe90613edb565b60405180910390fd5b8060050160009054906101000a900460ff16612058576040517f08c379a000000000000000000000000000000000000000000000000000000000815260040161204f90613f47565b60405180910390fd5b8060010154421161209e576040517f08c379a000000000000000000000000000000000000000000000000000000000815260040161209590613e6f565b60405180910390fd5b60005b8383905081101561220d57600e600086815260200190815260200160002060008585848181106120d4576120d3614179565b5b90506020020160208101906120e991906136f7565b73ffffffffffffffffffffffffffffffffffffffff1673ffffffffffffffffffffffffffffffffffffffff16815260200190815260200160002060009054906101000a900460ff16612170576040517f08c379a000000000000000000000000000000000000000000000000000000000815260040161216790613c5d565b60405180910390fd5b600160106000878152602001908152602001600020600086868581811061219a57612199614179565b5b90506020020160208101906121af91906136f7565b73ffffffffffffffffffffffffffffffffffffffff1673ffffffffffffffffffffffffffffffffffffffff16815260200190815260200160002060006101000a81548160ff02191690831515021790555080806001019150506120a1565b5050505050565b6000600d6000838152602001908152602001600020549050919050565b6000600260009054906101000a900473ffffffffffffffffffffffffffffffffffffffff16905090565b60606006805461226a90613be0565b80601f016020809104026020016040519081016040528092919081815260200182805461229690613be0565b80156122e35780601f106122b8576101008083540402835291602001916122e3565b820191906000526020600020905b8154815290600101906020018083116122c657829003601f168201915b5050505050905090565b6000806122f983610c26565b9050612306338585612e3a565b612311338583612c49565b600191505092915050565b6000600954905090565b834210612368576040517f08c379a000000000000000000000000000000000000000000000000000000000815260040161235f90613e6f565b60405180910390fd5b600073ffffffffffffffffffffffffffffffffffffffff16600b600087815260200190815260200160002060050160019054906101000a900473ffffffffffffffffffffffffffffffffffffffff1673ffffffffffffffffffffffffffffffffffffffff161461240d576040517f08c379a0000000000000000000000000000000000000000000000000000000008152600401612404906141f4565b60405180910390fd5b600061271060095485846124219190614214565b61242b9190614214565b6124359190614285565b9050600a60009054906101000a900473ffffffffffffffffffffffffffffffffffffffff1673ffffffffffffffffffffffffffffffffffffffff166323b872dd3330846040518463ffffffff1660e01b815260040161249693929190614068565b6020604051808303816000875af11580156124b5573d6000803e3d6000fd5b505050506040513d601f19601f820116820180604052508101906124d99190613d8a565b5042600b60008881526020019081526020016000206000018190555083600b60008881526020019081526020016000206002018190555082600b60008881526020019081526020016000206003018190555084600b6000888152602001908152602001600020600101819055506001600b600088815260200190815260200160002060050160006101000a81548160ff02191690831515021790555033600b600088815260200190815260200160002060050160016101000a81548173ffffffffffffffffffffffffffffffffffffffff021916908373ffffffffffffffffffffffffffffffffffffffff16021790555081600b600088815260200190815260200160002060040181905550505050505050565b3373ffffffffffffffffffffffffffffffffffffffff16600260009054906101000a900473ffffffffffffffffffffffffffffffffffffffff1673ffffffffffffffffffffffffffffffffffffffff161461267d576040517f08c379a000000000000000000000000000000000000000000000000000000000815260040161267490613b91565b60405180910390fd5b8181905084849050146126c5576040517f08c379a00000000000000000000000000000000000000000000000000000000081526004016126bc90614302565b60405180910390fd5b60005b8282905081101561284757600073ffffffffffffffffffffffffffffffffffffffff168383838181106126fe576126fd614179565b5b905060200201602081019061271391906136f7565b73ffffffffffffffffffffffffffffffffffffffff160361277a573373ffffffffffffffffffffffffffffffffffffffff166108fc479081150290604051600060405180830381858888f19350505050158015612774573d6000803e3d6000fd5b5061283a565b82828281811061278d5761278c614179565b5b90506020020160208101906127a291906136f7565b73ffffffffffffffffffffffffffffffffffffffff1663a9059cbb338787858181106127d1576127d0614179565b5b905060200201356040518363ffffffff1660e01b81526004016127f5929190613d4c565b6020604051808303816000875af1158015612814573d6000803e3d6000fd5b505050506040513d601f19601f820116820180604052508101906128389190613d8a565b505b80806001019150506126c8565b5050505050565b6000600460008473ffffffffffffffffffffffffffffffffffffffff1673ffffffffffffffffffffffffffffffffffffffff16815260200190815260200160002060008373ffffffffffffffffffffffffffffffffffffffff1673ffffffffffffffffffffffffffffffffffffffff16815260200190815260200160002054905092915050565b6000600e600084815260200190815260200160002060008373ffffffffffffffffffffffffffffffffffffffff1673ffffffffffffffffffffffffffffffffffffffff16815260200190815260200160002060009054906101000a900460ff16905092915050565b3373ffffffffffffffffffffffffffffffffffffffff16600260009054906101000a900473ffffffffffffffffffffffffffffffffffffffff1673ffffffffffffffffffffffffffffffffffffffff16146129cd576040517f08c379a00000000000000000000000000000000000000000000000000000000081526004016129c490613b91565b60405180910390fd5b600073ffffffffffffffffffffffffffffffffffffffff168173ffffffffffffffffffffffffffffffffffffffff1603612a3c576040517f08c379a0000000000000000000000000000000000000000000000000000000008152600401612a3390614394565b60405180910390fd5b80600360006101000a81548173ffffffffffffffffffffffffffffffffffffffff021916908373ffffffffffffffffffffffffffffffffffffffff16021790555050565b600073ffffffffffffffffffffffffffffffffffffffff168373ffffffffffffffffffffffffffffffffffffffff1603612aef576040517f08c379a0000000000000000000000000000000000000000000000000000000008152600401612ae690614426565b60405180910390fd5b600073ffffffffffffffffffffffffffffffffffffffff168273ffffffffffffffffffffffffffffffffffffffff1603612b5e576040517f08c379a0000000000000000000000000000000000000000000000000000000008152600401612b55906144b8565b60405180910390fd5b80600460008573ffffffffffffffffffffffffffffffffffffffff1673ffffffffffffffffffffffffffffffffffffffff16815260200190815260200160002060008473ffffffffffffffffffffffffffffffffffffffff1673ffffffffffffffffffffffffffffffffffffffff168152602001908152602001600020819055508173ffffffffffffffffffffffffffffffffffffffff168373ffffffffffffffffffffffffffffffffffffffff167f8c5be1e5ebec7d5bd14f71427d1e84f3dd0314c0f7b2291e5b200ac8c7c3b92583604051612c3c91906136dc565b60405180910390a3505050565b612c683373ffffffffffffffffffffffffffffffffffffffff16612d47565b612d42576000811115612d4157612ca283600260009054906101000a900473ffffffffffffffffffffffffffffffffffffffff1683612e3a565b600260009054906101000a900473ffffffffffffffffffffffffffffffffffffffff1673ffffffffffffffffffffffffffffffffffffffff168273ffffffffffffffffffffffffffffffffffffffff168473ffffffffffffffffffffffffffffffffffffffff167ffcf5b3276434181e3c48bd3fe569b8939808f11e845d4b963693b9d7dbd6dd9984604051612d3891906136dc565b60405180910390a45b5b505050565b600080823b905060008111915050919050565b6000612d64610f90565b821115612d7357819050612d7e565b612d7b610f90565b90505b919050565b6000808284612d929190613d18565b905083811015612dd7576040517f08c379a0000000000000000000000000000000000000000000000000000000008152600401612dce90614524565b60405180910390fd5b8091505092915050565b600082821115612e26576040517f08c379a0000000000000000000000000000000000000000000000000000000008152600401612e1d90614590565b60405180910390fd5b8183612e3291906145b0565b905092915050565b600073ffffffffffffffffffffffffffffffffffffffff168373ffffffffffffffffffffffffffffffffffffffff1603612ea9576040517f08c379a0000000000000000000000000000000000000000000000000000000008152600401612ea090614656565b60405180910390fd5b600073ffffffffffffffffffffffffffffffffffffffff168273ffffffffffffffffffffffffffffffffffffffff1603612f18576040517f08c379a0000000000000000000000000000000000000000000000000000000008152600401612f0f906146e8565b60405180910390fd5b6000808473ffffffffffffffffffffffffffffffffffffffff1673ffffffffffffffffffffffffffffffffffffffff16815260200190815260200160002054811115612f99576040517f08c379a0000000000000000000000000000000000000000000000000000000008152600401612f9090614754565b60405180910390fd5b612fea816000808673ffffffffffffffffffffffffffffffffffffffff1673ffffffffffffffffffffffffffffffffffffffff16815260200190815260200160002054612de190919063ffffffff16565b6000808573ffffffffffffffffffffffffffffffffffffffff1673ffffffffffffffffffffffffffffffffffffffff1681526020019081526020016000208190555061307d816000808573ffffffffffffffffffffffffffffffffffffffff1673ffffffffffffffffffffffffffffffffffffffff16815260200190815260200160002054612d8390919063ffffffff16565b6000808473ffffffffffffffffffffffffffffffffffffffff1673ffffffffffffffffffffffffffffffffffffffff168152602001908152602001600020819055508173ffffffffffffffffffffffffffffffffffffffff168373ffffffffffffffffffffffffffffffffffffffff167fddf252ad1be2c89b69c2b068fc378daa952ba7f163c4a11628f55a4df523b3ef8360405161311c91906136dc565b60405180910390a3505050565b600073ffffffffffffffffffffffffffffffffffffffff168273ffffffffffffffffffffffffffffffffffffffff1603613198576040517f08c379a000000000000000000000000000000000000000000000000000000000815260040161318f906147e6565b60405180910390fd5b6000808373ffffffffffffffffffffffffffffffffffffffff1673ffffffffffffffffffffffffffffffffffffffff16815260200190815260200160002054811115613219576040517f08c379a000000000000000000000000000000000000000000000000000000000815260040161321090614754565b60405180910390fd5b61322e81600854612de190919063ffffffff16565b600881905550613285816000808573ffffffffffffffffffffffffffffffffffffffff1673ffffffffffffffffffffffffffffffffffffffff16815260200190815260200160002054612de190919063ffffffff16565b6000808473ffffffffffffffffffffffffffffffffffffffff1673ffffffffffffffffffffffffffffffffffffffff16815260200190815260200160002081905550600073ffffffffffffffffffffffffffffffffffffffff168273ffffffffffffffffffffffffffffffffffffffff167fddf252ad1be2c89b69c2b068fc378daa952ba7f163c4a11628f55a4df523b3ef8360405161332591906136dc565b60405180910390a35050565b6040518060e001604052806000815260200160008152602001600081526020016000815260200160008152602001600015158152602001600073ffffffffffffffffffffffffffffffffffffffff1681525090565b600080fd5b600080fd5b6000819050919050565b6133a381613390565b81146133ae57600080fd5b50565b6000813590506133c08161339a565b92915050565b60008115159050919050565b6133db816133c6565b81146133e657600080fd5b50565b6000813590506133f8816133d2565b92915050565b6000806040838503121561341557613414613386565b5b6000613423858286016133b1565b9250506020613434858286016133e9565b9150509250929050565b60007fffffffff0000000000000000000000000000000000000000000000000000000082169050919050565b6134738161343e565b811461347e57600080fd5b50565b6000813590506134908161346a565b92915050565b6000602082840312156134ac576134ab613386565b5b60006134ba84828501613481565b91505092915050565b6134cc816133c6565b82525050565b60006020820190506134e760008301846134c3565b92915050565b600081519050919050565b600082825260208201905092915050565b60005b8381101561352757808201518184015260208101905061350c565b60008484015250505050565b6000601f19601f8301169050919050565b600061354f826134ed565b61355981856134f8565b9350613569818560208601613509565b61357281613533565b840191505092915050565b600060208201905081810360008301526135978184613544565b905092915050565b600073ffffffffffffffffffffffffffffffffffffffff82169050919050565b60006135ca8261359f565b9050919050565b6135da816135bf565b81146135e557600080fd5b50565b6000813590506135f7816135d1565b92915050565b6000819050919050565b613610816135fd565b811461361b57600080fd5b50565b60008135905061362d81613607565b92915050565b6000806040838503121561364a57613649613386565b5b6000613658858286016135e8565b92505060206136698582860161361e565b9150509250929050565b60006020828403121561368957613688613386565b5b6000613697848285016133b1565b91505092915050565b6000602082840312156136b6576136b5613386565b5b60006136c48482850161361e565b91505092915050565b6136d6816135fd565b82525050565b60006020820190506136f160008301846136cd565b92915050565b60006020828403121561370d5761370c613386565b5b600061371b848285016135e8565b91505092915050565b61372d816135bf565b82525050565b60006020820190506137486000830184613724565b92915050565b60008060006060848603121561376757613766613386565b5b6000613775868287016135e8565b9350506020613786868287016135e8565b92505060406137978682870161361e565b9150509250925092565b600060ff82169050919050565b6137b7816137a1565b82525050565b60006020820190506137d260008301846137ae565b92915050565b6137e1816135fd565b82525050565b6137f0816133c6565b82525050565b6137ff816135bf565b82525050565b60e08201600082015161381b60008501826137d8565b50602082015161382e60208501826137d8565b50604082015161384160408501826137d8565b50606082015161385460608501826137d8565b50608082015161386760808501826137d8565b5060a082015161387a60a08501826137e7565b5060c082015161388d60c08501826137f6565b50505050565b600060e0820190506138a86000830184613805565b92915050565b600080fd5b600080fd5b600080fd5b60008083601f8401126138d3576138d26138ae565b5b8235905067ffffffffffffffff8111156138f0576138ef6138b3565b5b60208301915083602082028301111561390c5761390b6138b8565b5b9250929050565b60008060006040848603121561392c5761392b613386565b5b600061393a868287016133b1565b935050602084013567ffffffffffffffff81111561395b5761395a61338b565b5b613967868287016138bd565b92509250509250925092565b600080600080600060a0868803121561398f5761398e613386565b5b600061399d888289016133b1565b95505060206139ae8882890161361e565b94505060406139bf8882890161361e565b93505060606139d08882890161361e565b92505060806139e18882890161361e565b9150509295509295909350565b60008083601f840112613a0457613a036138ae565b5b8235905067ffffffffffffffff811115613a2157613a206138b3565b5b602083019150836020820283011115613a3d57613a3c6138b8565b5b9250929050565b60008060008060408587031215613a5e57613a5d613386565b5b600085013567ffffffffffffffff811115613a7c57613a7b61338b565b5b613a88878288016139ee565b9450945050602085013567ffffffffffffffff811115613aab57613aaa61338b565b5b613ab7878288016138bd565b925092505092959194509250565b60008060408385031215613adc57613adb613386565b5b6000613aea858286016135e8565b9250506020613afb858286016135e8565b9150509250929050565b60008060408385031215613b1c57613b1b613386565b5b6000613b2a858286016133b1565b9250506020613b3b858286016135e8565b9150509250929050565b7f56524332353a2063616c6c6572206973206e6f7420746865206f776e65720000600082015250565b6000613b7b601e836134f8565b9150613b8682613b45565b602082019050919050565b60006020820190508181036000830152613baa81613b6e565b9050919050565b7f4e487b7100000000000000000000000000000000000000000000000000000000600052602260045260246000fd5b60006002820490506001821680613bf857607f821691505b602082108103613c0b57613c0a613bb1565b5b50919050565b7f596f75206e6f7420726567697374657200000000000000000000000000000000600082015250565b6000613c476010836134f8565b9150613c5282613c11565b602082019050919050565b60006020820190508181036000830152613c7681613c3a565b9050919050565b7f546f757220686176656e27742063616e63656c6c656400000000000000000000600082015250565b6000613cb36016836134f8565b9150613cbe82613c7d565b602082019050919050565b60006020820190508181036000830152613ce281613ca6565b9050919050565b7f4e487b7100000000000000000000000000000000000000000000000000000000600052601160045260246000fd5b6000613d23826135fd565b9150613d2e836135fd565b9250828201905080821115613d4657613d45613ce9565b5b92915050565b6000604082019050613d616000830185613724565b613d6e60208301846136cd565b9392505050565b600081519050613d84816133d2565b92915050565b600060208284031215613da057613d9f613386565b5b6000613dae84828501613d75565b91505092915050565b7f56524332353a20616d6f756e742065786565647320616c6c6f77616e63650000600082015250565b6000613ded601e836134f8565b9150613df882613db7565b602082019050919050565b60006020820190508181036000830152613e1c81613de0565b9050919050565b7f496e76616c69642054696d650000000000000000000000000000000000000000600082015250565b6000613e59600c836134f8565b9150613e6482613e23565b602082019050919050565b60006020820190508181036000830152613e8881613e4c565b9050919050565b7f596f7520617265206e6f7420746f757220677569646500000000000000000000600082015250565b6000613ec56016836134f8565b9150613ed082613e8f565b602082019050919050565b60006020820190508181036000830152613ef481613eb8565b9050919050565b7f746f75722063616e63656c6c6564000000000000000000000000000000000000600082015250565b6000613f31600e836134f8565b9150613f3c82613efb565b602082019050919050565b60006020820190508181036000830152613f6081613f24565b9050919050565b6000613f72826135fd565b915060008203613f8557613f84613ce9565b5b600182039050919050565b7f5265676973746564000000000000000000000000000000000000000000000000600082015250565b6000613fc66008836134f8565b9150613fd182613f90565b602082019050919050565b60006020820190508181036000830152613ff581613fb9565b9050919050565b7f4c494d4954000000000000000000000000000000000000000000000000000000600082015250565b60006140326005836134f8565b915061403d82613ffc565b602082019050919050565b6000602082019050818103600083015261406181614025565b9050919050565b600060608201905061407d6000830186613724565b61408a6020830185613724565b61409760408301846136cd565b949350505050565b60006140aa826135fd565b91507fffffffffffffffffffffffffffffffffffffffffffffffffffffffffffffffff82036140dc576140db613ce9565b5b600182019050919050565b7f56524332353a206f6e6c79206e6577206f776e65722063616e2061636365707460008201527f206f776e65727368697000000000000000000000000000000000000000000000602082015250565b6000614143602a836134f8565b915061414e826140e7565b604082019050919050565b6000602082019050818103600083015261417281614136565b9050919050565b7f4e487b7100000000000000000000000000000000000000000000000000000000600052603260045260246000fd5b7f496e76616c696420494400000000000000000000000000000000000000000000600082015250565b60006141de600a836134f8565b91506141e9826141a8565b602082019050919050565b6000602082019050818103600083015261420d816141d1565b9050919050565b600061421f826135fd565b915061422a836135fd565b9250828202614238816135fd565b9150828204841483151761424f5761424e613ce9565b5b5092915050565b7f4e487b7100000000000000000000000000000000000000000000000000000000600052601260045260246000fd5b6000614290826135fd565b915061429b836135fd565b9250826142ab576142aa614256565b5b828204905092915050565b7f4d69736d61746368206c656e6774680000000000000000000000000000000000600082015250565b60006142ec600f836134f8565b91506142f7826142b6565b602082019050919050565b6000602082019050818103600083015261431b816142df565b9050919050565b7f56524332353a206e6577206f776e657220697320746865207a65726f2061646460008201527f7265737300000000000000000000000000000000000000000000000000000000602082015250565b600061437e6024836134f8565b915061438982614322565b604082019050919050565b600060208201905081810360008301526143ad81614371565b9050919050565b7f56524332353a20617070726f76652066726f6d20746865207a65726f2061646460008201527f7265737300000000000000000000000000000000000000000000000000000000602082015250565b60006144106024836134f8565b915061441b826143b4565b604082019050919050565b6000602082019050818103600083015261443f81614403565b9050919050565b7f56524332353a20617070726f766520746f20746865207a65726f20616464726560008201527f7373000000000000000000000000000000000000000000000000000000000000602082015250565b60006144a26022836134f8565b91506144ad82614446565b604082019050919050565b600060208201905081810360008301526144d181614495565b9050919050565b7f536166654d6174683a206164646974696f6e206f766572666c6f770000000000600082015250565b600061450e601b836134f8565b9150614519826144d8565b602082019050919050565b6000602082019050818103600083015261453d81614501565b9050919050565b7f536166654d6174683a207375627472616374696f6e206f766572666c6f770000600082015250565b600061457a601e836134f8565b915061458582614544565b602082019050919050565b600060208201905081810360008301526145a98161456d565b9050919050565b60006145bb826135fd565b91506145c6836135fd565b92508282039050818111156145de576145dd613ce9565b5b92915050565b7f56524332353a207472616e736665722066726f6d20746865207a65726f20616460008201527f6472657373000000000000000000000000000000000000000000000000000000602082015250565b60006146406025836134f8565b915061464b826145e4565b604082019050919050565b6000602082019050818103600083015261466f81614633565b9050919050565b7f56524332353a207472616e7366657220746f20746865207a65726f206164647260008201527f6573730000000000000000000000000000000000000000000000000000000000602082015250565b60006146d26023836134f8565b91506146dd82614676565b604082019050919050565b60006020820190508181036000830152614701816146c5565b9050919050565b7f56524332353a20696e7375666669656e742062616c616e636500000000000000600082015250565b600061473e6019836134f8565b915061474982614708565b602082019050919050565b6000602082019050818103600083015261476d81614731565b9050919050565b7f56524332353a206275726e2066726f6d20746865207a65726f2061646472657360008201527f7300000000000000000000000000000000000000000000000000000000000000602082015250565b60006147d06021836134f8565b91506147db82614774565b604082019050919050565b600060208201905081810360008301526147ff816147c3565b905091905056fea26469706673582212206b1ff5c632995a9eff7774d98a38183f84409b87263217d2bff8747afe2eb10e64736f6c63430008180033",
  "linkReferences": {},
  "deployedLinkReferences": {}
}